{
  "contractName": "ApeToken",
  "abi": [
    {
      "inputs": [],
      "stateMutability": "nonpayable",
      "type": "constructor"
    },
    {
      "anonymous": false,
      "inputs": [
        {
          "indexed": true,
          "internalType": "address",
          "name": "account",
          "type": "address"
        },
        {
          "indexed": true,
          "internalType": "address",
          "name": "operator",
          "type": "address"
        },
        {
          "indexed": false,
          "internalType": "bool",
          "name": "approved",
          "type": "bool"
        }
      ],
      "name": "ApprovalForAll",
      "type": "event"
    },
    {
      "anonymous": false,
      "inputs": [
        {
          "indexed": true,
          "internalType": "address",
          "name": "operator",
          "type": "address"
        },
        {
          "indexed": true,
          "internalType": "address",
          "name": "from",
          "type": "address"
        },
        {
          "indexed": true,
          "internalType": "address",
          "name": "to",
          "type": "address"
        },
        {
          "indexed": false,
          "internalType": "uint256[]",
          "name": "ids",
          "type": "uint256[]"
        },
        {
          "indexed": false,
          "internalType": "uint256[]",
          "name": "values",
          "type": "uint256[]"
        }
      ],
      "name": "TransferBatch",
      "type": "event"
    },
    {
      "anonymous": false,
      "inputs": [
        {
          "indexed": true,
          "internalType": "address",
          "name": "operator",
          "type": "address"
        },
        {
          "indexed": true,
          "internalType": "address",
          "name": "from",
          "type": "address"
        },
        {
          "indexed": true,
          "internalType": "address",
          "name": "to",
          "type": "address"
        },
        {
          "indexed": false,
          "internalType": "uint256",
          "name": "id",
          "type": "uint256"
        },
        {
          "indexed": false,
          "internalType": "uint256",
          "name": "value",
          "type": "uint256"
        }
      ],
      "name": "TransferSingle",
      "type": "event"
    },
    {
      "anonymous": false,
      "inputs": [
        {
          "indexed": false,
          "internalType": "string",
          "name": "value",
          "type": "string"
        },
        {
          "indexed": true,
          "internalType": "uint256",
          "name": "id",
          "type": "uint256"
        }
      ],
      "name": "URI",
      "type": "event"
    },
    {
      "inputs": [
        {
          "internalType": "address",
          "name": "account",
          "type": "address"
        },
        {
          "internalType": "uint256",
          "name": "id",
          "type": "uint256"
        }
      ],
      "name": "balanceOf",
      "outputs": [
        {
          "internalType": "uint256",
          "name": "",
          "type": "uint256"
        }
      ],
      "stateMutability": "view",
      "type": "function",
      "constant": true
    },
    {
      "inputs": [
        {
          "internalType": "address[]",
          "name": "accounts",
          "type": "address[]"
        },
        {
          "internalType": "uint256[]",
          "name": "ids",
          "type": "uint256[]"
        }
      ],
      "name": "balanceOfBatch",
      "outputs": [
        {
          "internalType": "uint256[]",
          "name": "",
          "type": "uint256[]"
        }
      ],
      "stateMutability": "view",
      "type": "function",
      "constant": true
    },
    {
      "inputs": [],
      "name": "contractURI",
      "outputs": [
        {
          "internalType": "string",
          "name": "",
          "type": "string"
        }
      ],
      "stateMutability": "pure",
      "type": "function",
      "constant": true
    },
    {
      "inputs": [
        {
          "internalType": "address",
          "name": "account",
          "type": "address"
        },
        {
          "internalType": "address",
          "name": "operator",
          "type": "address"
        }
      ],
      "name": "isApprovedForAll",
      "outputs": [
        {
          "internalType": "bool",
          "name": "",
          "type": "bool"
        }
      ],
      "stateMutability": "view",
      "type": "function",
      "constant": true
    },
    {
      "inputs": [
        {
          "internalType": "address",
          "name": "from",
          "type": "address"
        },
        {
          "internalType": "address",
          "name": "to",
          "type": "address"
        },
        {
          "internalType": "uint256[]",
          "name": "ids",
          "type": "uint256[]"
        },
        {
          "internalType": "uint256[]",
          "name": "amounts",
          "type": "uint256[]"
        },
        {
          "internalType": "bytes",
          "name": "data",
          "type": "bytes"
        }
      ],
      "name": "safeBatchTransferFrom",
      "outputs": [],
      "stateMutability": "nonpayable",
      "type": "function"
    },
    {
      "inputs": [
        {
          "internalType": "address",
          "name": "from",
          "type": "address"
        },
        {
          "internalType": "address",
          "name": "to",
          "type": "address"
        },
        {
          "internalType": "uint256",
          "name": "id",
          "type": "uint256"
        },
        {
          "internalType": "uint256",
          "name": "amount",
          "type": "uint256"
        },
        {
          "internalType": "bytes",
          "name": "data",
          "type": "bytes"
        }
      ],
      "name": "safeTransferFrom",
      "outputs": [],
      "stateMutability": "nonpayable",
      "type": "function"
    },
    {
      "inputs": [
        {
          "internalType": "address",
          "name": "operator",
          "type": "address"
        },
        {
          "internalType": "bool",
          "name": "approved",
          "type": "bool"
        }
      ],
      "name": "setApprovalForAll",
      "outputs": [],
      "stateMutability": "nonpayable",
      "type": "function"
    },
    {
      "inputs": [
        {
          "internalType": "bytes4",
          "name": "interfaceId",
          "type": "bytes4"
        }
      ],
      "name": "supportsInterface",
      "outputs": [
        {
          "internalType": "bool",
          "name": "",
          "type": "bool"
        }
      ],
      "stateMutability": "view",
      "type": "function",
      "constant": true
    },
    {
      "inputs": [
        {
          "internalType": "uint256",
          "name": "_tokenId",
          "type": "uint256"
        }
      ],
      "name": "tokenURI",
      "outputs": [
        {
          "internalType": "string",
          "name": "",
          "type": "string"
        }
      ],
      "stateMutability": "view",
      "type": "function",
      "constant": true
    },
    {
      "inputs": [
        {
          "internalType": "uint256",
          "name": "",
          "type": "uint256"
        }
      ],
      "name": "totalSupply",
      "outputs": [
        {
          "internalType": "uint256",
          "name": "",
          "type": "uint256"
        }
      ],
      "stateMutability": "view",
      "type": "function",
      "constant": true
    },
    {
      "inputs": [
        {
          "internalType": "uint256",
          "name": "_id",
          "type": "uint256"
        }
      ],
      "name": "uri",
      "outputs": [
        {
          "internalType": "string",
          "name": "",
          "type": "string"
        }
      ],
      "stateMutability": "view",
      "type": "function",
      "constant": true
    },
    {
      "inputs": [
        {
          "internalType": "address",
          "name": "to",
          "type": "address"
        },
        {
          "internalType": "uint256",
          "name": "id",
          "type": "uint256"
        },
        {
          "internalType": "uint256",
          "name": "amount",
          "type": "uint256"
        }
      ],
      "name": "mint",
      "outputs": [],
      "stateMutability": "nonpayable",
      "type": "function"
    }
  ],
  "bytecode": "0x60806040523480156200001157600080fd5b50604051806020016040528060008152506200003a6301ffc9a760e01b6200009760201b60201c565b6200004b81620001a060201b60201c565b6200006363d9b67a2660e01b6200009760201b60201c565b6200007b630e89341c60e01b6200009760201b60201c565b50620000913360006001620001bc60201b60201c565b620009ec565b63ffffffff60e01b817bffffffffffffffffffffffffffffffffffffffffffffffffffffffff1916141562000134576040517f08c379a000000000000000000000000000000000000000000000000000000000815260040180806020018281038252601c8152602001807f4552433136353a20696e76616c696420696e746572666163652069640000000081525060200191505060405180910390fd5b6001600080837bffffffffffffffffffffffffffffffffffffffffffffffffffffffff19167bffffffffffffffffffffffffffffffffffffffffffffffffffffffff1916815260200190815260200160002060006101000a81548160ff02191690831515021790555050565b8060039080519060200190620001b89291906200093d565b5050565b620001df83838360405180602001604052806000815250620001e460201b60201c565b505050565b600073ffffffffffffffffffffffffffffffffffffffff168473ffffffffffffffffffffffffffffffffffffffff1614156200026c576040517f08c379a0000000000000000000000000000000000000000000000000000000008152600401808060200182810382526021815260200180620035c56021913960400191505060405180910390fd5b60006200027e6200041860201b60201c565b9050620002b78160008762000299886200042060201b60201c565b620002aa886200042060201b60201c565b876200047b60201b60201c565b62000321836001600087815260200190815260200160002060008873ffffffffffffffffffffffffffffffffffffffff1673ffffffffffffffffffffffffffffffffffffffff168152602001908152602001600020546200048360201b62001ceb1790919060201c565b6001600086815260200190815260200160002060008773ffffffffffffffffffffffffffffffffffffffff1673ffffffffffffffffffffffffffffffffffffffff168152602001908152602001600020819055508473ffffffffffffffffffffffffffffffffffffffff16600073ffffffffffffffffffffffffffffffffffffffff168273ffffffffffffffffffffffffffffffffffffffff167fc3d58168c5ae7397731d063d5bbf3d657854427343f4c083240f7aacaa2d0f628787604051808381526020018281526020019250505060405180910390a462000411816000878787876200050c60201b60201c565b5050505050565b600033905090565b6060806001604051908082528060200260200182016040528015620004545781602001602082028038833980820191505090505b50905082816000815181106200046657fe5b60200260200101818152505080915050919050565b505050505050565b60008082840190508381101562000502576040517f08c379a000000000000000000000000000000000000000000000000000000000815260040180806020018281038252601b8152602001807f536166654d6174683a206164646974696f6e206f766572666c6f77000000000081525060200191505060405180910390fd5b8091505092915050565b620005388473ffffffffffffffffffffffffffffffffffffffff166200092a60201b620029001760201c565b1562000922578373ffffffffffffffffffffffffffffffffffffffff1663f23a6e6187878686866040518663ffffffff1660e01b8152600401808673ffffffffffffffffffffffffffffffffffffffff1673ffffffffffffffffffffffffffffffffffffffff1681526020018573ffffffffffffffffffffffffffffffffffffffff1673ffffffffffffffffffffffffffffffffffffffff16815260200184815260200183815260200180602001828103825283818151815260200191508051906020019080838360005b838110156200062057808201518184015260208101905062000603565b50505050905090810190601f1680156200064e5780820380516001836020036101000a031916815260200191505b509650505050505050602060405180830381600087803b1580156200067257600080fd5b505af1925050508015620006a857506040513d60208110156200069457600080fd5b810190808051906020019092919050505060015b620008815760006040519050600081526001156200077d5760443d1015620006d457600090506200077d565b60046000803e60005160e01c6308c379a08114620006f75760009150506200077d565b60043d036004833e81513d602482011167ffffffffffffffff8211171562000725576000925050506200077d565b808301805167ffffffffffffffff811115620007495760009450505050506200077d565b8060208301013d860181111562000769576000955050505050506200077d565b601f19601f82011660405282955050505050505b806200078a57506200082f565b806040517f08c379a00000000000000000000000000000000000000000000000000000000081526004018080602001828103825283818151815260200191508051906020019080838360005b83811015620007f3578082015181840152602081019050620007d6565b50505050905090810190601f168015620008215780820380516001836020036101000a031916815260200191505b509250505060405180910390fd5b6040517f08c379a0000000000000000000000000000000000000000000000000000000008152600401808060200182810382526034815260200180620035696034913960400191505060405180910390fd5b63f23a6e6160e01b7bffffffffffffffffffffffffffffffffffffffffffffffffffffffff1916817bffffffffffffffffffffffffffffffffffffffffffffffffffffffff19161462000920576040517f08c379a00000000000000000000000000000000000000000000000000000000081526004018080602001828103825260288152602001806200359d6028913960400191505060405180910390fd5b505b505050505050565b600080823b905060008111915050919050565b828054600181600116156101000203166002900490600052602060002090601f016020900481019282601f106200098057805160ff1916838001178555620009b1565b82800160010185558215620009b1579182015b82811115620009b057825182559160200191906001019062000993565b5b509050620009c09190620009c4565b5090565b620009e991905b80821115620009e5576000816000905550600101620009cb565b5090565b90565b612b6d80620009fc6000396000f3fe608060405234801561001057600080fd5b50600436106100b35760003560e01c8063a22cb46511610071578063a22cb46514610642578063bd85b03914610692578063c87b56dd146106d4578063e8a3d4851461077b578063e985e9c5146107fe578063f242432a1461087a576100b3565b8062fdd58e146100b857806301ffc9a71461011a5780630e89341c1461017f578063156e29f6146102265780632eb2c2d61461027e5780634e1273f4146104a1575b600080fd5b610104600480360360408110156100ce57600080fd5b81019080803573ffffffffffffffffffffffffffffffffffffffff16906020019092919080359060200190929190505050610989565b6040518082815260200191505060405180910390f35b6101656004803603602081101561013057600080fd5b8101908080357bffffffffffffffffffffffffffffffffffffffffffffffffffffffff19169060200190929190505050610a69565b604051808215151515815260200191505060405180910390f35b6101ab6004803603602081101561019557600080fd5b8101908080359060200190929190505050610ad0565b6040518080602001828103825283818151815260200191508051906020019080838360005b838110156101eb5780820151818401526020810190506101d0565b50505050905090810190601f1680156102185780820380516001836020036101000a031916815260200191505b509250505060405180910390f35b61027c6004803603606081101561023c57600080fd5b81019080803573ffffffffffffffffffffffffffffffffffffffff1690602001909291908035906020019092919080359060200190929190505050610b85565b005b61049f600480360360a081101561029457600080fd5b81019080803573ffffffffffffffffffffffffffffffffffffffff169060200190929190803573ffffffffffffffffffffffffffffffffffffffff169060200190929190803590602001906401000000008111156102f157600080fd5b82018360208201111561030357600080fd5b8035906020019184602083028401116401000000008311171561032557600080fd5b919080806020026020016040519081016040528093929190818152602001838360200280828437600081840152601f19601f8201169050808301925050505050505091929192908035906020019064010000000081111561038557600080fd5b82018360208201111561039757600080fd5b803590602001918460208302840111640100000000831117156103b957600080fd5b919080806020026020016040519081016040528093929190818152602001838360200280828437600081840152601f19601f8201169050808301925050505050505091929192908035906020019064010000000081111561041957600080fd5b82018360208201111561042b57600080fd5b8035906020019184600183028401116401000000008311171561044d57600080fd5b91908080601f016020809104026020016040519081016040528093929190818152602001838380828437600081840152601f19601f820116905080830192505050505050509192919290505050610ba5565b005b6105eb600480360360408110156104b757600080fd5b81019080803590602001906401000000008111156104d457600080fd5b8201836020820111156104e657600080fd5b8035906020019184602083028401116401000000008311171561050857600080fd5b919080806020026020016040519081016040528093929190818152602001838360200280828437600081840152601f19601f8201169050808301925050505050505091929192908035906020019064010000000081111561056857600080fd5b82018360208201111561057a57600080fd5b8035906020019184602083028401116401000000008311171561059c57600080fd5b919080806020026020016040519081016040528093929190818152602001838360200280828437600081840152601f19601f820116905080830192505050505050509192919290505050611033565b6040518080602001828103825283818151815260200191508051906020019060200280838360005b8381101561062e578082015181840152602081019050610613565b505050509050019250505060405180910390f35b6106906004803603604081101561065857600080fd5b81019080803573ffffffffffffffffffffffffffffffffffffffff169060200190929190803515159060200190929190505050611211565b005b6106be600480360360208110156106a857600080fd5b81019080803590602001909291905050506113ac565b6040518082815260200191505060405180910390f35b610700600480360360208110156106ea57600080fd5b81019080803590602001909291905050506113c4565b6040518080602001828103825283818151815260200191508051906020019080838360005b83811015610740578082015181840152602081019050610725565b50505050905090810190601f16801561076d5780820380516001836020036101000a031916815260200191505b509250505060405180910390f35b610783611479565b6040518080602001828103825283818151815260200191508051906020019080838360005b838110156107c35780820151818401526020810190506107a8565b50505050905090810190601f1680156107f05780820380516001836020036101000a031916815260200191505b509250505060405180910390f35b6108606004803603604081101561081457600080fd5b81019080803573ffffffffffffffffffffffffffffffffffffffff169060200190929190803573ffffffffffffffffffffffffffffffffffffffff169060200190929190505050611499565b604051808215151515815260200191505060405180910390f35b610987600480360360a081101561089057600080fd5b81019080803573ffffffffffffffffffffffffffffffffffffffff169060200190929190803573ffffffffffffffffffffffffffffffffffffffff16906020019092919080359060200190929190803590602001909291908035906020019064010000000081111561090157600080fd5b82018360208201111561091357600080fd5b8035906020019184600183028401116401000000008311171561093557600080fd5b91908080601f016020809104026020016040519081016040528093929190818152602001838380828437600081840152601f19601f820116905080830192505050505050509192919290505050611532565b005b60008073ffffffffffffffffffffffffffffffffffffffff168373ffffffffffffffffffffffffffffffffffffffff161415610a10576040517f08c379a000000000000000000000000000000000000000000000000000000000815260040180806020018281038252602b815260200180612997602b913960400191505060405180910390fd5b6001600083815260200190815260200160002060008473ffffffffffffffffffffffffffffffffffffffff1673ffffffffffffffffffffffffffffffffffffffff16815260200190815260200160002054905092915050565b6000806000837bffffffffffffffffffffffffffffffffffffffffffffffffffffffff19167bffffffffffffffffffffffffffffffffffffffffffffffffffffffff1916815260200190815260200160002060009054906101000a900460ff169050919050565b6060610b7e60038054600181600116156101000203166002900480601f016020809104026020016040519081016040528092919081815260200182805460018160011615610100020316600290048015610b6b5780601f10610b4057610100808354040283529160200191610b6b565b820191906000526020600020905b815481529060010190602001808311610b4e57829003601f168201915b5050505050610b79846118a7565b6119d4565b9050919050565b610ba083838360405180602001604052806000815250611a18565b505050565b8151835114610bff576040517f08c379a0000000000000000000000000000000000000000000000000000000008152600401808060200182810382526028815260200180612aef6028913960400191505060405180910390fd5b600073ffffffffffffffffffffffffffffffffffffffff168473ffffffffffffffffffffffffffffffffffffffff161415610c85576040517f08c379a0000000000000000000000000000000000000000000000000000000008152600401808060200182810382526025815260200180612a1c6025913960400191505060405180910390fd5b610c8d611c1b565b73ffffffffffffffffffffffffffffffffffffffff168573ffffffffffffffffffffffffffffffffffffffff161480610cd35750610cd285610ccd611c1b565b611499565b5b610d28576040517f08c379a0000000000000000000000000000000000000000000000000000000008152600401808060200182810382526032815260200180612a416032913960400191505060405180910390fd5b6000610d32611c1b565b9050610d42818787878787611c23565b60008090505b8451811015610f16576000858281518110610d5f57fe5b602002602001015190506000858381518110610d7757fe5b60200260200101519050610dfe816040518060600160405280602a8152602001612a73602a91396001600086815260200190815260200160002060008d73ffffffffffffffffffffffffffffffffffffffff1673ffffffffffffffffffffffffffffffffffffffff16815260200190815260200160002054611c2b9092919063ffffffff16565b6001600084815260200190815260200160002060008b73ffffffffffffffffffffffffffffffffffffffff1673ffffffffffffffffffffffffffffffffffffffff16815260200190815260200160002081905550610eb5816001600085815260200190815260200160002060008b73ffffffffffffffffffffffffffffffffffffffff1673ffffffffffffffffffffffffffffffffffffffff16815260200190815260200160002054611ceb90919063ffffffff16565b6001600084815260200190815260200160002060008a73ffffffffffffffffffffffffffffffffffffffff1673ffffffffffffffffffffffffffffffffffffffff168152602001908152602001600020819055505050806001019050610d48565b508473ffffffffffffffffffffffffffffffffffffffff168673ffffffffffffffffffffffffffffffffffffffff168273ffffffffffffffffffffffffffffffffffffffff167f4a39dc06d4c0dbc64b70af90fd698a233a518aa5d07e595d983b8c0526c8f7fb8787604051808060200180602001838103835285818151815260200191508051906020019060200280838360005b83811015610fc6578082015181840152602081019050610fab565b50505050905001838103825284818151815260200191508051906020019060200280838360005b83811015611008578082015181840152602081019050610fed565b5050505090500194505050505060405180910390a461102b818787878787611d73565b505050505050565b6060815183511461108f576040517f08c379a0000000000000000000000000000000000000000000000000000000008152600401808060200182810382526029815260200180612ac66029913960400191505060405180910390fd5b606083516040519080825280602002602001820160405280156110c15781602001602082028038833980820191505090505b50905060008090505b845181101561120657600073ffffffffffffffffffffffffffffffffffffffff168582815181106110f757fe5b602002602001015173ffffffffffffffffffffffffffffffffffffffff16141561116c576040517f08c379a00000000000000000000000000000000000000000000000000000000081526004018080602001828103825260318152602001806129c26031913960400191505060405180910390fd5b6001600085838151811061117c57fe5b6020026020010151815260200190815260200160002060008683815181106111a057fe5b602002602001015173ffffffffffffffffffffffffffffffffffffffff1673ffffffffffffffffffffffffffffffffffffffff168152602001908152602001600020548282815181106111ef57fe5b6020026020010181815250508060010190506110ca565b508091505092915050565b8173ffffffffffffffffffffffffffffffffffffffff16611230611c1b565b73ffffffffffffffffffffffffffffffffffffffff16141561129d576040517f08c379a0000000000000000000000000000000000000000000000000000000008152600401808060200182810382526029815260200180612a9d6029913960400191505060405180910390fd5b80600260006112aa611c1b565b73ffffffffffffffffffffffffffffffffffffffff1673ffffffffffffffffffffffffffffffffffffffff16815260200190815260200160002060008473ffffffffffffffffffffffffffffffffffffffff1673ffffffffffffffffffffffffffffffffffffffff16815260200190815260200160002060006101000a81548160ff0219169083151502179055508173ffffffffffffffffffffffffffffffffffffffff16611357611c1b565b73ffffffffffffffffffffffffffffffffffffffff167f17307eab39ab6107e8899845ad3d59bd9653f200f220920489ca2b5937696c3183604051808215151515815260200191505060405180910390a35050565b60046020528060005260406000206000915090505481565b606061147260038054600181600116156101000203166002900480601f01602080910402602001604051908101604052809291908181526020018280546001816001161561010002031660029004801561145f5780601f106114345761010080835404028352916020019161145f565b820191906000526020600020905b81548152906001019060200180831161144257829003601f168201915b505050505061146d846118a7565b6119d4565b9050919050565b606060405180606001604052806027815260200161297060279139905090565b600080839050600260008273ffffffffffffffffffffffffffffffffffffffff1673ffffffffffffffffffffffffffffffffffffffff16815260200190815260200160002060008473ffffffffffffffffffffffffffffffffffffffff1673ffffffffffffffffffffffffffffffffffffffff16815260200190815260200160002060009054906101000a900460ff1691505092915050565b600073ffffffffffffffffffffffffffffffffffffffff168473ffffffffffffffffffffffffffffffffffffffff1614156115b8576040517f08c379a0000000000000000000000000000000000000000000000000000000008152600401808060200182810382526025815260200180612a1c6025913960400191505060405180910390fd5b6115c0611c1b565b73ffffffffffffffffffffffffffffffffffffffff168573ffffffffffffffffffffffffffffffffffffffff161480611606575061160585611600611c1b565b611499565b5b61165b576040517f08c379a00000000000000000000000000000000000000000000000000000000081526004018080602001828103825260298152602001806129f36029913960400191505060405180910390fd5b6000611665611c1b565b9050611685818787611676886121eb565b61167f886121eb565b87611c23565b611702836040518060600160405280602a8152602001612a73602a91396001600088815260200190815260200160002060008a73ffffffffffffffffffffffffffffffffffffffff1673ffffffffffffffffffffffffffffffffffffffff16815260200190815260200160002054611c2b9092919063ffffffff16565b6001600086815260200190815260200160002060008873ffffffffffffffffffffffffffffffffffffffff1673ffffffffffffffffffffffffffffffffffffffff168152602001908152602001600020819055506117b9836001600087815260200190815260200160002060008873ffffffffffffffffffffffffffffffffffffffff1673ffffffffffffffffffffffffffffffffffffffff16815260200190815260200160002054611ceb90919063ffffffff16565b6001600086815260200190815260200160002060008773ffffffffffffffffffffffffffffffffffffffff1673ffffffffffffffffffffffffffffffffffffffff168152602001908152602001600020819055508473ffffffffffffffffffffffffffffffffffffffff168673ffffffffffffffffffffffffffffffffffffffff168273ffffffffffffffffffffffffffffffffffffffff167fc3d58168c5ae7397731d063d5bbf3d657854427343f4c083240f7aacaa2d0f628787604051808381526020018281526020019250505060405180910390a461189f818787878787612244565b505050505050565b606060008214156118ef576040518060400160405280600181526020017f300000000000000000000000000000000000000000000000000000000000000081525090506119cf565b600082905060005b60008214611919578080600101915050600a828161191157fe5b0491506118f7565b6060816040519080825280601f01601f19166020018201604052801561194e5781602001600182028038833980820191505090505b50905060006001830390505b600086146119c757600a868161196c57fe5b0660300160f81b8282806001900393508151811061198657fe5b60200101907effffffffffffffffffffffffffffffffffffffffffffffffffffffffffffff1916908160001a905350600a86816119bf57fe5b04955061195a565b819450505050505b919050565b6060611a10838360405180602001604052806000815250604051806020016040528060008152506040518060200160405280600081525061263a565b905092915050565b600073ffffffffffffffffffffffffffffffffffffffff168473ffffffffffffffffffffffffffffffffffffffff161415611a9e576040517f08c379a0000000000000000000000000000000000000000000000000000000008152600401808060200182810382526021815260200180612b176021913960400191505060405180910390fd5b6000611aa8611c1b565b9050611ac981600087611aba886121eb565b611ac3886121eb565b87611c23565b611b2c836001600087815260200190815260200160002060008873ffffffffffffffffffffffffffffffffffffffff1673ffffffffffffffffffffffffffffffffffffffff16815260200190815260200160002054611ceb90919063ffffffff16565b6001600086815260200190815260200160002060008773ffffffffffffffffffffffffffffffffffffffff1673ffffffffffffffffffffffffffffffffffffffff168152602001908152602001600020819055508473ffffffffffffffffffffffffffffffffffffffff16600073ffffffffffffffffffffffffffffffffffffffff168273ffffffffffffffffffffffffffffffffffffffff167fc3d58168c5ae7397731d063d5bbf3d657854427343f4c083240f7aacaa2d0f628787604051808381526020018281526020019250505060405180910390a4611c1481600087878787612244565b5050505050565b600033905090565b505050505050565b6000838311158290611cd8576040517f08c379a00000000000000000000000000000000000000000000000000000000081526004018080602001828103825283818151815260200191508051906020019080838360005b83811015611c9d578082015181840152602081019050611c82565b50505050905090810190601f168015611cca5780820380516001836020036101000a031916815260200191505b509250505060405180910390fd5b5060008385039050809150509392505050565b600080828401905083811015611d69576040517f08c379a000000000000000000000000000000000000000000000000000000000815260040180806020018281038252601b8152602001807f536166654d6174683a206164646974696f6e206f766572666c6f77000000000081525060200191505060405180910390fd5b8091505092915050565b611d928473ffffffffffffffffffffffffffffffffffffffff16612900565b156121e3578373ffffffffffffffffffffffffffffffffffffffff1663bc197c8187878686866040518663ffffffff1660e01b8152600401808673ffffffffffffffffffffffffffffffffffffffff1673ffffffffffffffffffffffffffffffffffffffff1681526020018573ffffffffffffffffffffffffffffffffffffffff1673ffffffffffffffffffffffffffffffffffffffff168152602001806020018060200180602001848103845287818151815260200191508051906020019060200280838360005b83811015611e76578082015181840152602081019050611e5b565b50505050905001848103835286818151815260200191508051906020019060200280838360005b83811015611eb8578082015181840152602081019050611e9d565b50505050905001848103825285818151815260200191508051906020019080838360005b83811015611ef7578082015181840152602081019050611edc565b50505050905090810190601f168015611f245780820380516001836020036101000a031916815260200191505b5098505050505050505050602060405180830381600087803b158015611f4957600080fd5b505af1925050508015611f7d57506040513d6020811015611f6957600080fd5b810190808051906020019092919050505060015b6121445760006040519050600081526001156120465760443d1015611fa55760009050612046565b60046000803e60005160e01c6308c379a08114611fc6576000915050612046565b60043d036004833e81513d602482011167ffffffffffffffff82111715611ff257600092505050612046565b808301805167ffffffffffffffff811115612014576000945050505050612046565b8060208301013d860181111561203257600095505050505050612046565b601f19601f82011660405282955050505050505b8061205157506120f3565b806040517f08c379a00000000000000000000000000000000000000000000000000000000081526004018080602001828103825283818151815260200191508051906020019080838360005b838110156120b857808201518184015260208101905061209d565b50505050905090810190601f1680156120e55780820380516001836020036101000a031916815260200191505b509250505060405180910390fd5b6040517f08c379a00000000000000000000000000000000000000000000000000000000081526004018080602001828103825260348152602001806129146034913960400191505060405180910390fd5b63bc197c8160e01b7bffffffffffffffffffffffffffffffffffffffffffffffffffffffff1916817bffffffffffffffffffffffffffffffffffffffffffffffffffffffff1916146121e1576040517f08c379a00000000000000000000000000000000000000000000000000000000081526004018080602001828103825260288152602001806129486028913960400191505060405180910390fd5b505b505050505050565b606080600160405190808252806020026020018201604052801561221e5781602001602082028038833980820191505090505b509050828160008151811061222f57fe5b60200260200101818152505080915050919050565b6122638473ffffffffffffffffffffffffffffffffffffffff16612900565b15612632578373ffffffffffffffffffffffffffffffffffffffff1663f23a6e6187878686866040518663ffffffff1660e01b8152600401808673ffffffffffffffffffffffffffffffffffffffff1673ffffffffffffffffffffffffffffffffffffffff1681526020018573ffffffffffffffffffffffffffffffffffffffff1673ffffffffffffffffffffffffffffffffffffffff16815260200184815260200183815260200180602001828103825283818151815260200191508051906020019080838360005b8381101561234857808201518184015260208101905061232d565b50505050905090810190601f1680156123755780820380516001836020036101000a031916815260200191505b509650505050505050602060405180830381600087803b15801561239857600080fd5b505af19250505080156123cc57506040513d60208110156123b857600080fd5b810190808051906020019092919050505060015b6125935760006040519050600081526001156124955760443d10156123f45760009050612495565b60046000803e60005160e01c6308c379a08114612415576000915050612495565b60043d036004833e81513d602482011167ffffffffffffffff8211171561244157600092505050612495565b808301805167ffffffffffffffff811115612463576000945050505050612495565b8060208301013d860181111561248157600095505050505050612495565b601f19601f82011660405282955050505050505b806124a05750612542565b806040517f08c379a00000000000000000000000000000000000000000000000000000000081526004018080602001828103825283818151815260200191508051906020019080838360005b838110156125075780820151818401526020810190506124ec565b50505050905090810190601f1680156125345780820380516001836020036101000a031916815260200191505b509250505060405180910390fd5b6040517f08c379a00000000000000000000000000000000000000000000000000000000081526004018080602001828103825260348152602001806129146034913960400191505060405180910390fd5b63f23a6e6160e01b7bffffffffffffffffffffffffffffffffffffffffffffffffffffffff1916817bffffffffffffffffffffffffffffffffffffffffffffffffffffffff191614612630576040517f08c379a00000000000000000000000000000000000000000000000000000000081526004018080602001828103825260288152602001806129486028913960400191505060405180910390fd5b505b505050505050565b6060808690506060869050606086905060608690506060869050606081518351855187518951010101016040519080825280601f01601f1916602001820160405280156126965781602001600182028038833980820191505090505b5090506060819050600080905060008090505b8851811015612717578881815181106126be57fe5b602001015160f81c60f81b8383806001019450815181106126db57fe5b60200101907effffffffffffffffffffffffffffffffffffffffffffffffffffffffffffff1916908160001a90535080806001019150506126a9565b5060008090505b875181101561278c5787818151811061273357fe5b602001015160f81c60f81b83838060010194508151811061275057fe5b60200101907effffffffffffffffffffffffffffffffffffffffffffffffffffffffffffff1916908160001a905350808060010191505061271e565b5060008090505b8651811015612801578681815181106127a857fe5b602001015160f81c60f81b8383806001019450815181106127c557fe5b60200101907effffffffffffffffffffffffffffffffffffffffffffffffffffffffffffff1916908160001a9053508080600101915050612793565b5060008090505b85518110156128765785818151811061281d57fe5b602001015160f81c60f81b83838060010194508151811061283a57fe5b60200101907effffffffffffffffffffffffffffffffffffffffffffffffffffffffffffff1916908160001a9053508080600101915050612808565b5060008090505b84518110156128eb5784818151811061289257fe5b602001015160f81c60f81b8383806001019450815181106128af57fe5b60200101907effffffffffffffffffffffffffffffffffffffffffffffffffffffffffffff1916908160001a905350808060010191505061287d565b50819850505050505050505095945050505050565b600080823b90506000811191505091905056fe455243313135353a207472616e7366657220746f206e6f6e2045524331313535526563656976657220696d706c656d656e746572455243313135353a204552433131353552656365697665722072656a656374656420746f6b656e7368747470733a2f2f6170692e6e6f646572756e6e6572732e696f2f6170692f6e66742e6a736f6e455243313135353a2062616c616e636520717565727920666f7220746865207a65726f2061646472657373455243313135353a2062617463682062616c616e636520717565727920666f7220746865207a65726f2061646472657373455243313135353a2063616c6c6572206973206e6f74206f776e6572206e6f7220617070726f766564455243313135353a207472616e7366657220746f20746865207a65726f2061646472657373455243313135353a207472616e736665722063616c6c6572206973206e6f74206f776e6572206e6f7220617070726f766564455243313135353a20696e73756666696369656e742062616c616e636520666f72207472616e73666572455243313135353a2073657474696e6720617070726f76616c2073746174757320666f722073656c66455243313135353a206163636f756e747320616e6420696473206c656e677468206d69736d61746368455243313135353a2069647320616e6420616d6f756e7473206c656e677468206d69736d61746368455243313135353a206d696e7420746f20746865207a65726f2061646472657373a2646970667358221220eacf9ea3c92d8fec65a3f9bb672ddeace9e50b958aa83b0715aa291ee6a417a264736f6c63430006020033455243313135353a207472616e7366657220746f206e6f6e2045524331313535526563656976657220696d706c656d656e746572455243313135353a204552433131353552656365697665722072656a656374656420746f6b656e73455243313135353a206d696e7420746f20746865207a65726f2061646472657373",
  "source": "// SPDX-License-Identifier: MIT\n\npragma solidity 0.6.2;\n\n/**\n * @dev Interface of the ERC165 standard, as defined in the\n * https://eips.ethereum.org/EIPS/eip-165[EIP].\n *\n * Implementers can declare support of contract interfaces, which can then be\n * queried by others ({ERC165Checker}).\n *\n * For an implementation, see {ERC165}.\n */\ninterface IERC165 {\n    /**\n     * @dev Returns true if this contract implements the interface defined by\n     * `interfaceId`. See the corresponding\n     * https://eips.ethereum.org/EIPS/eip-165#how-interfaces-are-identified[EIP section]\n     * to learn more about how these ids are created.\n     *\n     * This function call must use less than 30 000 gas.\n     */\n     /*\n     It is possible to cause an arithmetic underflow.\n     Prevent the underflow by constraining inputs using the require() statement or use the OpenZeppelin SafeMath library for integer arithmetic operations.\n     Refer to the transaction trace generated for this issue to reproduce the underflow.\n     https://swcregistry.io/docs/SWC-101\n     */\n    function supportsInterface(bytes4 interfaceId) external view returns (bool);\n}\n\n// SPDX-License-Identifier: MIT\n\npragma solidity 0.6.2;\n\n\n/**\n * @dev Required interface of an ERC1155 compliant contract, as defined in the\n * https://eips.ethereum.org/EIPS/eip-1155[EIP].\n *\n * _Available since v3.1._\n */\ninterface IERC1155 is IERC165 {\n    /**\n     * @dev Emitted when `value` tokens of token type `id` are transferred from `from` to `to` by `operator`.\n     */\n    event TransferSingle(address indexed operator, address indexed from, address indexed to, uint256 id, uint256 value);\n\n    /**\n     * @dev Equivalent to multiple {TransferSingle} events, where `operator`, `from` and `to` are the same for all\n     * transfers.\n     */\n    event TransferBatch(address indexed operator, address indexed from, address indexed to, uint256[] ids, uint256[] values);\n\n    /**\n     * @dev Emitted when `account` grants or revokes permission to `operator` to transfer their tokens, according to\n     * `approved`.\n     */\n    event ApprovalForAll(address indexed account, address indexed operator, bool approved);\n\n    /**\n     * @dev Emitted when the URI for token type `id` changes to `value`, if it is a non-programmatic URI.\n     *\n     * If an {URI} event was emitted for `id`, the standard\n     * https://eips.ethereum.org/EIPS/eip-1155#metadata-extensions[guarantees] that `value` will equal the value\n     * returned by {IERC1155MetadataURI-uri}.\n     */\n    event URI(string value, uint256 indexed id);\n\n    /**\n     * @dev Returns the amount of tokens of token type `id` owned by `account`.\n     *\n     * Requirements:\n     *\n     * - `account` cannot be the zero address.\n     */\n    function balanceOf(address account, uint256 id) external view returns (uint256);\n\n    /**\n     * @dev xref:ROOT:erc1155.adoc#batch-operations[Batched] version of {balanceOf}.\n     *\n     * Requirements:\n     *\n     * - `accounts` and `ids` must have the same length.\n     */\n    function balanceOfBatch(address[] calldata accounts, uint256[] calldata ids) external view returns (uint256[] memory);\n\n    /**\n     * @dev Grants or revokes permission to `operator` to transfer the caller's tokens, according to `approved`,\n     *\n     * Emits an {ApprovalForAll} event.\n     *\n     * Requirements:\n     *\n     * - `operator` cannot be the caller.\n     */\n    function setApprovalForAll(address operator, bool approved) external;\n\n    /**\n     * @dev Returns true if `operator` is approved to transfer ``account``'s tokens.\n     *\n     * See {setApprovalForAll}.\n     */\n    function isApprovedForAll(address account, address operator) external view returns (bool);\n\n    /**\n     * @dev Transfers `amount` tokens of token type `id` from `from` to `to`.\n     *\n     * Emits a {TransferSingle} event.\n     *\n     * Requirements:\n     *\n     * - `to` cannot be the zero address.\n     * - If the caller is not `from`, it must be have been approved to spend ``from``'s tokens via {setApprovalForAll}.\n     * - `from` must have a balance of tokens of type `id` of at least `amount`.\n     * - If `to` refers to a smart contract, it must implement {IERC1155Receiver-onERC1155Received} and return the\n     * acceptance magic value.\n     */\n    function safeTransferFrom(address from, address to, uint256 id, uint256 amount, bytes calldata data) external;\n\n    /**\n     * @dev xref:ROOT:erc1155.adoc#batch-operations[Batched] version of {safeTransferFrom}.\n     *\n     * Emits a {TransferBatch} event.\n     *\n     * Requirements:\n     *\n     * - `ids` and `amounts` must have the same length.\n     * - If `to` refers to a smart contract, it must implement {IERC1155Receiver-onERC1155BatchReceived} and return the\n     * acceptance magic value.\n     */\n    function safeBatchTransferFrom(address from, address to, uint256[] calldata ids, uint256[] calldata amounts, bytes calldata data) external;\n}\n\n// SPDX-License-Identifier: MIT\n\npragma solidity 0.6.2;\n\n\n/**\n * @dev Interface of the optional ERC1155MetadataExtension interface, as defined\n * in the https://eips.ethereum.org/EIPS/eip-1155#metadata-extensions[EIP].\n *\n * _Available since v3.1._\n */\ninterface IERC1155MetadataURI is IERC1155 {\n    /**\n     * @dev Returns the URI for token type `id`.\n     *\n     * If the `\\{id\\}` substring is present in the URI, it must be replaced by\n     * clients with the actual token type ID.\n     */\n    function uri(uint256 id) external view returns (string memory);\n}\n\n// SPDX-License-Identifier: MIT\n\npragma solidity 0.6.2;\n\n\n/**\n * _Available since v3.1._\n */\ninterface IERC1155Receiver is IERC165 {\n\n    /**\n        @dev Handles the receipt of a single ERC1155 token type. This function is\n        called at the end of a `safeTransferFrom` after the balance has been updated.\n        To accept the transfer, this must return\n        `bytes4(keccak256(\"onERC1155Received(address,address,uint256,uint256,bytes)\"))`\n        (i.e. 0xf23a6e61, or its own function selector).\n        @param operator The address which initiated the transfer (i.e. msg.sender)\n        @param from The address which previously owned the token\n        @param id The ID of the token being transferred\n        @param value The amount of tokens being transferred\n        @param data Additional data with no specified format\n        @return `bytes4(keccak256(\"onERC1155Received(address,address,uint256,uint256,bytes)\"))` if transfer is allowed\n    */\n    function onERC1155Received(\n        address operator,\n        address from,\n        uint256 id,\n        uint256 value,\n        bytes calldata data\n    )\n        external\n        returns(bytes4);\n\n    /**\n        @dev Handles the receipt of a multiple ERC1155 token types. This function\n        is called at the end of a `safeBatchTransferFrom` after the balances have\n        been updated. To accept the transfer(s), this must return\n        `bytes4(keccak256(\"onERC1155BatchReceived(address,address,uint256[],uint256[],bytes)\"))`\n        (i.e. 0xbc197c81, or its own function selector).\n        @param operator The address which initiated the batch transfer (i.e. msg.sender)\n        @param from The address which previously owned the token\n        @param ids An array containing ids of each token being transferred (order and length must match values array)\n        @param values An array containing amounts of each token being transferred (order and length must match ids array)\n        @param data Additional data with no specified format\n        @return `bytes4(keccak256(\"onERC1155BatchReceived(address,address,uint256[],uint256[],bytes)\"))` if transfer is allowed\n    */\n    function onERC1155BatchReceived(\n        address operator,\n        address from,\n        uint256[] calldata ids,\n        uint256[] calldata values,\n        bytes calldata data\n    )\n        external\n        returns(bytes4);\n}\n\n// SPDX-License-Identifier: MIT\n\npragma solidity 0.6.2;\n\n/*\n * @dev Provides information about the current execution context, including the\n * sender of the transaction and its data. While these are generally available\n * via msg.sender and msg.data, they should not be accessed in such a direct\n * manner, since when dealing with GSN meta-transactions the account sending and\n * paying for execution may not be the actual sender (as far as an application\n * is concerned).\n *\n * This contract is only required for intermediate, library-like contracts.\n */\nabstract contract Context {\n    function _msgSender() internal view virtual returns (address payable) {\n        return msg.sender;\n    }\n\n    function _msgData() internal view virtual returns (bytes memory) {\n        this; // silence state mutability warning without generating bytecode - see https://github.com/ethereum/solidity/issues/2691\n        return msg.data;\n    }\n}\n\n// SPDX-License-Identifier: MIT\n\npragma solidity 0.6.2;\n\n\n/**\n * @dev Implementation of the {IERC165} interface.\n *\n * Contracts may inherit from this and call {_registerInterface} to declare\n * their support of an interface.\n */\ncontract ERC165 is IERC165 {\n    /*\n     * bytes4(keccak256('supportsInterface(bytes4)')) == 0x01ffc9a7\n     */\n    bytes4 private constant _INTERFACE_ID_ERC165 = 0x01ffc9a7;\n\n    /**\n     * @dev Mapping of interface ids to whether or not it's supported.\n     */\n    mapping(bytes4 => bool) private _supportedInterfaces;\n\n    constructor () internal {\n        // Derived contracts need only register support for their own interfaces,\n        // we register support for ERC165 itself here\n        _registerInterface(_INTERFACE_ID_ERC165);\n    }\n\n    /**\n     * @dev See {IERC165-supportsInterface}.\n     *\n     * Time complexity O(1), guaranteed to always use less than 30 000 gas.\n     */\n     /*\n     It is possible to cause an arithmetic underflow.\n     Prevent the underflow by constraining inputs using the require() statement or use the OpenZeppelin SafeMath library for integer arithmetic operations.\n     Refer to the transaction trace generated for this issue to reproduce the underflow.\n     https://swcregistry.io/docs/SWC-101\n     */\n    function supportsInterface(bytes4 interfaceId) public view override returns (bool) {\n        return _supportedInterfaces[interfaceId];\n    }\n\n    /**\n     * @dev Registers the contract as an implementer of the interface defined by\n     * `interfaceId`. Support of the actual ERC165 interface is automatic and\n     * registering its interface id is not required.\n     *\n     * See {IERC165-supportsInterface}.\n     *\n     * Requirements:\n     *\n     * - `interfaceId` cannot be the ERC165 invalid interface (`0xffffffff`).\n     */\n    function _registerInterface(bytes4 interfaceId) internal virtual {\n        require(interfaceId != 0xffffffff, \"ERC165: invalid interface id\");\n        _supportedInterfaces[interfaceId] = true;\n    }\n}\n\n// SPDX-License-Identifier: MIT\n\npragma solidity 0.6.2;\n\n/**\n * @dev Wrappers over Solidity's arithmetic operations with added overflow\n * checks.\n *\n * Arithmetic operations in Solidity wrap on overflow. This can easily result\n * in bugs, because programmers usually assume that an overflow raises an\n * error, which is the standard behavior in high level programming languages.\n * `SafeMath` restores this intuition by reverting the transaction when an\n * operation overflows.\n *\n * Using this library instead of the unchecked operations eliminates an entire\n * class of bugs, so it's recommended to use it always.\n */\nlibrary SafeMath {\n    /**\n     * @dev Returns the addition of two unsigned integers, reverting on\n     * overflow.\n     *\n     * Counterpart to Solidity's `+` operator.\n     *\n     * Requirements:\n     *\n     * - Addition cannot overflow.\n     */\n    function add(uint256 a, uint256 b) internal pure returns (uint256) {\n        uint256 c = a + b;\n        require(c >= a, \"SafeMath: addition overflow\");\n\n        return c;\n    }\n\n    /**\n     * @dev Returns the subtraction of two unsigned integers, reverting on\n     * overflow (when the result is negative).\n     *\n     * Counterpart to Solidity's `-` operator.\n     *\n     * Requirements:\n     *\n     * - Subtraction cannot overflow.\n     */\n    function sub(uint256 a, uint256 b) internal pure returns (uint256) {\n        return sub(a, b, \"SafeMath: subtraction overflow\");\n    }\n\n    /**\n     * @dev Returns the subtraction of two unsigned integers, reverting with custom message on\n     * overflow (when the result is negative).\n     *\n     * Counterpart to Solidity's `-` operator.\n     *\n     * Requirements:\n     *\n     * - Subtraction cannot overflow.\n     */\n    function sub(uint256 a, uint256 b, string memory errorMessage) internal pure returns (uint256) {\n        require(b <= a, errorMessage);\n        uint256 c = a - b;\n\n        return c;\n    }\n\n    /**\n     * @dev Returns the multiplication of two unsigned integers, reverting on\n     * overflow.\n     *\n     * Counterpart to Solidity's `*` operator.\n     *\n     * Requirements:\n     *\n     * - Multiplication cannot overflow.\n     */\n    function mul(uint256 a, uint256 b) internal pure returns (uint256) {\n        // Gas optimization: this is cheaper than requiring 'a' not being zero, but the\n        // benefit is lost if 'b' is also tested.\n        // See: https://github.com/OpenZeppelin/openzeppelin-contracts/pull/522\n        if (a == 0) {\n            return 0;\n        }\n\n        uint256 c = a * b;\n        require(c / a == b, \"SafeMath: multiplication overflow\");\n\n        return c;\n    }\n\n    /**\n     * @dev Returns the integer division of two unsigned integers. Reverts on\n     * division by zero. The result is rounded towards zero.\n     *\n     * Counterpart to Solidity's `/` operator. Note: this function uses a\n     * `revert` opcode (which leaves remaining gas untouched) while Solidity\n     * uses an invalid opcode to revert (consuming all remaining gas).\n     *\n     * Requirements:\n     *\n     * - The divisor cannot be zero.\n     */\n    function div(uint256 a, uint256 b) internal pure returns (uint256) {\n        return div(a, b, \"SafeMath: division by zero\");\n    }\n\n    /**\n     * @dev Returns the integer division of two unsigned integers. Reverts with custom message on\n     * division by zero. The result is rounded towards zero.\n     *\n     * Counterpart to Solidity's `/` operator. Note: this function uses a\n     * `revert` opcode (which leaves remaining gas untouched) while Solidity\n     * uses an invalid opcode to revert (consuming all remaining gas).\n     *\n     * Requirements:\n     *\n     * - The divisor cannot be zero.\n     */\n    function div(uint256 a, uint256 b, string memory errorMessage) internal pure returns (uint256) {\n        require(b > 0, errorMessage);\n        uint256 c = a / b;\n        // assert(a == b * c + a % b); // There is no case in which this doesn't hold\n\n        return c;\n    }\n\n    /**\n     * @dev Returns the remainder of dividing two unsigned integers. (unsigned integer modulo),\n     * Reverts when dividing by zero.\n     *\n     * Counterpart to Solidity's `%` operator. This function uses a `revert`\n     * opcode (which leaves remaining gas untouched) while Solidity uses an\n     * invalid opcode to revert (consuming all remaining gas).\n     *\n     * Requirements:\n     *\n     * - The divisor cannot be zero.\n     */\n    function mod(uint256 a, uint256 b) internal pure returns (uint256) {\n        return mod(a, b, \"SafeMath: modulo by zero\");\n    }\n\n    /**\n     * @dev Returns the remainder of dividing two unsigned integers. (unsigned integer modulo),\n     * Reverts with custom message when dividing by zero.\n     *\n     * Counterpart to Solidity's `%` operator. This function uses a `revert`\n     * opcode (which leaves remaining gas untouched) while Solidity uses an\n     * invalid opcode to revert (consuming all remaining gas).\n     *\n     * Requirements:\n     *\n     * - The divisor cannot be zero.\n     */\n    function mod(uint256 a, uint256 b, string memory errorMessage) internal pure returns (uint256) {\n        require(b != 0, errorMessage);\n        return a % b;\n    }\n}\n\n// SPDX-License-Identifier: MIT\n\npragma solidity 0.6.2;\n\n/**\n * @dev Collection of functions related to the address type\n */\nlibrary Address {\n    /**\n     * @dev Returns true if `account` is a contract.\n     *\n     * [IMPORTANT]\n     * ====\n     * It is unsafe to assume that an address for which this function returns\n     * false is an externally-owned account (EOA) and not a contract.\n     *\n     * Among others, `isContract` will return false for the following\n     * types of addresses:\n     *\n     *  - an externally-owned account\n     *  - a contract in construction\n     *  - an address where a contract will be created\n     *  - an address where a contract lived, but was destroyed\n     * ====\n     */\n    function isContract(address account) internal view returns (bool) {\n        // This method relies in extcodesize, which returns 0 for contracts in\n        // construction, since the code is only stored at the end of the\n        // constructor execution.\n\n        uint256 size;\n        // solhint-disable-next-line no-inline-assembly\n        assembly { size := extcodesize(account) }\n        return size > 0;\n    }\n\n    /**\n     * @dev Replacement for Solidity's `transfer`: sends `amount` wei to\n     * `recipient`, forwarding all available gas and reverting on errors.\n     *\n     * https://eips.ethereum.org/EIPS/eip-1884[EIP1884] increases the gas cost\n     * of certain opcodes, possibly making contracts go over the 2300 gas limit\n     * imposed by `transfer`, making them unable to receive funds via\n     * `transfer`. {sendValue} removes this limitation.\n     *\n     * https://diligence.consensys.net/posts/2019/09/stop-using-soliditys-transfer-now/[Learn more].\n     *\n     * IMPORTANT: because control is transferred to `recipient`, care must be\n     * taken to not create reentrancy vulnerabilities. Consider using\n     * {ReentrancyGuard} or the\n     * https://solidity.readthedocs.io/en/v0.5.11/security-considerations.html#use-the-checks-effects-interactions-pattern[checks-effects-interactions pattern].\n     */\n    function sendValue(address payable recipient, uint256 amount) internal {\n        require(address(this).balance >= amount, \"Address: insufficient balance\");\n\n        // solhint-disable-next-line avoid-low-level-calls, avoid-call-value\n        (bool success, ) = recipient.call{ value: amount }(\"\");\n        require(success, \"Address: unable to send value, recipient may have reverted\");\n    }\n\n    /**\n     * @dev Performs a Solidity function call using a low level `call`. A\n     * plain`call` is an unsafe replacement for a function call: use this\n     * function instead.\n     *\n     * If `target` reverts with a revert reason, it is bubbled up by this\n     * function (like regular Solidity function calls).\n     *\n     * Returns the raw returned data. To convert to the expected return value,\n     * use https://solidity.readthedocs.io/en/latest/units-and-global-variables.html?highlight=abi.decode#abi-encoding-and-decoding-functions[`abi.decode`].\n     *\n     * Requirements:\n     *\n     * - `target` must be a contract.\n     * - calling `target` with `data` must not revert.\n     *\n     * _Available since v3.1._\n     */\n    function functionCall(address target, bytes memory data) internal returns (bytes memory) {\n      return functionCall(target, data, \"Address: low-level call failed\");\n    }\n\n    /**\n     * @dev Same as {xref-Address-functionCall-address-bytes-}[`functionCall`], but with\n     * `errorMessage` as a fallback revert reason when `target` reverts.\n     *\n     * _Available since v3.1._\n     */\n    function functionCall(address target, bytes memory data, string memory errorMessage) internal returns (bytes memory) {\n        return _functionCallWithValue(target, data, 0, errorMessage);\n    }\n\n    /**\n     * @dev Same as {xref-Address-functionCall-address-bytes-}[`functionCall`],\n     * but also transferring `value` wei to `target`.\n     *\n     * Requirements:\n     *\n     * - the calling contract must have an ETH balance of at least `value`.\n     * - the called Solidity function must be `payable`.\n     *\n     * _Available since v3.1._\n     */\n    function functionCallWithValue(address target, bytes memory data, uint256 value) internal returns (bytes memory) {\n        return functionCallWithValue(target, data, value, \"Address: low-level call with value failed\");\n    }\n\n    /**\n     * @dev Same as {xref-Address-functionCallWithValue-address-bytes-uint256-}[`functionCallWithValue`], but\n     * with `errorMessage` as a fallback revert reason when `target` reverts.\n     *\n     * _Available since v3.1._\n     */\n    function functionCallWithValue(address target, bytes memory data, uint256 value, string memory errorMessage) internal returns (bytes memory) {\n        require(address(this).balance >= value, \"Address: insufficient balance for call\");\n        return _functionCallWithValue(target, data, value, errorMessage);\n    }\n\n    function _functionCallWithValue(address target, bytes memory data, uint256 weiValue, string memory errorMessage) private returns (bytes memory) {\n        require(isContract(target), \"Address: call to non-contract\");\n\n        // solhint-disable-next-line avoid-low-level-calls\n        (bool success, bytes memory returndata) = target.call{ value: weiValue }(data);\n        if (success) {\n            return returndata;\n        } else {\n            // Look for revert reason and bubble it up if present\n            if (returndata.length > 0) {\n                // The easiest way to bubble the revert reason is using memory via assembly\n\n                // solhint-disable-next-line no-inline-assembly\n                assembly {\n                    let returndata_size := mload(returndata)\n                    revert(add(32, returndata), returndata_size)\n                }\n            } else {\n                revert(errorMessage);\n            }\n        }\n    }\n}\n\npragma solidity 0.6.2;\n\nlibrary Strings {\n  // via https://github.com/oraclize/ethereum-api/blob/master/oraclizeAPI_0.5.sol\n  function strConcat(string memory _a, string memory _b, string memory _c, string memory _d, string memory _e) internal pure returns (string memory) {\n      bytes memory _ba = bytes(_a);\n      bytes memory _bb = bytes(_b);\n      bytes memory _bc = bytes(_c);\n      bytes memory _bd = bytes(_d);\n      bytes memory _be = bytes(_e);\n      string memory abcde = new string(_ba.length + _bb.length + _bc.length + _bd.length + _be.length);\n      bytes memory babcde = bytes(abcde);\n      uint k = 0;\n      for (uint i = 0; i < _ba.length; i++) babcde[k++] = _ba[i];\n      for (uint i = 0; i < _bb.length; i++) babcde[k++] = _bb[i];\n      for (uint i = 0; i < _bc.length; i++) babcde[k++] = _bc[i];\n      for (uint i = 0; i < _bd.length; i++) babcde[k++] = _bd[i];\n      for (uint i = 0; i < _be.length; i++) babcde[k++] = _be[i];\n      return string(babcde);\n    }\n\n    function strConcat(string memory _a, string memory _b, string memory _c, string memory _d) internal pure returns (string memory) {\n        return strConcat(_a, _b, _c, _d, \"\");\n    }\n\n    function strConcat(string memory _a, string memory _b, string memory _c) internal pure returns (string memory) {\n        return strConcat(_a, _b, _c, \"\", \"\");\n    }\n\n    function strConcat(string memory _a, string memory _b) internal pure returns (string memory) {\n        return strConcat(_a, _b, \"\", \"\", \"\");\n    }\n\n    function uint2str(uint _i) internal pure returns (string memory _uintAsString) {\n        if (_i == 0) {\n            return \"0\";\n        }\n        uint j = _i;\n        uint len;\n        while (j != 0) {\n            len++;\n            j /= 10;\n        }\n        bytes memory bstr = new bytes(len);\n        uint k = len - 1;\n        while (_i != 0) {\n            bstr[k--] = byte(uint8(48 + _i % 10));\n            _i /= 10;\n        }\n        return string(bstr);\n    }\n}\n\n// SPDX-License-Identifier: MIT\n\npragma solidity 0.6.2;\n\n/**\n *\n * @dev Implementation of the basic standard multi-token.\n * See https://eips.ethereum.org/EIPS/eip-1155\n * Originally based on code by Enjin: https://github.com/enjin/erc-1155\n *\n * _Available since v3.1._\n */\ncontract ERC1155 is Context, ERC165, IERC1155, IERC1155MetadataURI {\n    using SafeMath for uint256;\n    using Address for address;\n\n    // Mapping from token ID to account balances\n    mapping (uint256 => mapping(address => uint256)) private _balances;\n\n    // Mapping from account to operator approvals\n    mapping (address => mapping(address => bool)) private _operatorApprovals;\n\n    // Used as the URI for all token types by relying on ID substitution, e.g. https://token-cdn-domain/{id}.json\n    string private _uri;\n\n    /*\n     *     bytes4(keccak256('balanceOf(address,uint256)')) == 0x00fdd58e\n     *     bytes4(keccak256('balanceOfBatch(address[],uint256[])')) == 0x4e1273f4\n     *     bytes4(keccak256('setApprovalForAll(address,bool)')) == 0xa22cb465\n     *     bytes4(keccak256('isApprovedForAll(address,address)')) == 0xe985e9c5\n     *     bytes4(keccak256('safeTransferFrom(address,address,uint256,uint256,bytes)')) == 0xf242432a\n     *     bytes4(keccak256('safeBatchTransferFrom(address,address,uint256[],uint256[],bytes)')) == 0x2eb2c2d6\n     *\n     *     => 0x00fdd58e ^ 0x4e1273f4 ^ 0xa22cb465 ^\n     *        0xe985e9c5 ^ 0xf242432a ^ 0x2eb2c2d6 == 0xd9b67a26\n     */\n    bytes4 private constant _INTERFACE_ID_ERC1155 = 0xd9b67a26;\n\n    /*\n     *     bytes4(keccak256('uri(uint256)')) == 0x0e89341c\n     */\n    bytes4 private constant _INTERFACE_ID_ERC1155_METADATA_URI = 0x0e89341c;\n\n    /**\n     * @dev See {_setURI}.\n     */\n    constructor (string memory uri) public {\n        _setURI(uri);\n\n        // register the supported interfaces to conform to ERC1155 via ERC165\n        _registerInterface(_INTERFACE_ID_ERC1155);\n\n        // register the supported interfaces to conform to ERC1155MetadataURI via ERC165\n        _registerInterface(_INTERFACE_ID_ERC1155_METADATA_URI);\n    }\n\n    /**\n     * @dev See {IERC1155MetadataURI-uri}.\n     *\n     * This implementation returns the same URI for *all* token types. It relies\n     * on the token type ID substitution mechanism\n     * https://eips.ethereum.org/EIPS/eip-1155#metadata[defined in the EIP].\n     *\n     * Clients calling this function must replace the `\\{id\\}` substring with the\n     * actual token type ID.\n     * --- MODIFIED TO CONCAT THE _ID TO THE END OF THE URL\n     */\n    function uri(uint256 _id) external view override returns (string memory) {\n        return Strings.strConcat(_uri, Strings.uint2str(_id));\n    }\n    function tokenURI(uint256 _tokenId) public view returns (string memory) {\n        return Strings.strConcat(_uri, Strings.uint2str(_tokenId));\n    }\n    string private constant _contractURI = \"https://api.noderunners.io/api/nft.json\";\n    function contractURI() public pure returns (string memory) {\n        return _contractURI;\n    }\n\n\n    /**\n     * @dev See {IERC1155-balanceOf}.\n     *\n     * Requirements:\n     *\n     * - `account` cannot be the zero address.\n     */\n    function balanceOf(address account, uint256 id) public view override returns (uint256) {\n        require(account != address(0), \"ERC1155: balance query for the zero address\");\n        return _balances[id][account];\n    }\n\n    /**\n     * @dev See {IERC1155-balanceOfBatch}.\n     *\n     * Requirements:\n     *\n     * - `accounts` and `ids` must have the same length.\n     */\n    function balanceOfBatch(\n        address[] memory accounts,\n        uint256[] memory ids\n    )\n        public\n        view\n        override\n        returns (uint256[] memory)\n    {\n        require(accounts.length == ids.length, \"ERC1155: accounts and ids length mismatch\");\n\n        uint256[] memory batchBalances = new uint256[](accounts.length);\n\n        for (uint256 i = 0; i < accounts.length; ++i) {\n            require(accounts[i] != address(0), \"ERC1155: batch balance query for the zero address\");\n            batchBalances[i] = _balances[ids[i]][accounts[i]];\n        }\n\n        return batchBalances;\n    }\n\n    /**\n     * @dev See {IERC1155-setApprovalForAll}.\n     */\n    function setApprovalForAll(address operator, bool approved) public virtual override {\n        require(_msgSender() != operator, \"ERC1155: setting approval status for self\");\n\n        _operatorApprovals[_msgSender()][operator] = approved;\n        emit ApprovalForAll(_msgSender(), operator, approved);\n    }\n\n    /**\n     * @dev See {IERC1155-isApprovedForAll}.\n     */\n    function isApprovedForAll(address account, address operator) public view override returns (bool) {\n        address _account = account;\n        return _operatorApprovals[_account][operator];\n    }\n\n    /**\n     * @dev See {IERC1155-safeTransferFrom}.\n     */\n    function safeTransferFrom(\n        address from,\n        address to,\n        uint256 id,\n        uint256 amount,\n        bytes memory data\n    )\n        public\n        virtual\n        override\n    {\n        require(to != address(0), \"ERC1155: transfer to the zero address\");\n        require(\n            from == _msgSender() || isApprovedForAll(from, _msgSender()),\n            \"ERC1155: caller is not owner nor approved\"\n        );\n\n        address operator = _msgSender();\n\n        _beforeTokenTransfer(operator, from, to, _asSingletonArray(id), _asSingletonArray(amount), data);\n\n        _balances[id][from] = _balances[id][from].sub(amount, \"ERC1155: insufficient balance for transfer\");\n        _balances[id][to] = _balances[id][to].add(amount);\n\n        emit TransferSingle(operator, from, to, id, amount);\n\n        _doSafeTransferAcceptanceCheck(operator, from, to, id, amount, data);\n    }\n\n    /**\n     * @dev See {IERC1155-safeBatchTransferFrom}.\n     */\n    function safeBatchTransferFrom(\n        address from,\n        address to,\n        uint256[] memory ids,\n        uint256[] memory amounts,\n        bytes memory data\n    )\n        public\n        virtual\n        override\n    {\n        require(ids.length == amounts.length, \"ERC1155: ids and amounts length mismatch\");\n        require(to != address(0), \"ERC1155: transfer to the zero address\");\n        require(\n            from == _msgSender() || isApprovedForAll(from, _msgSender()),\n            \"ERC1155: transfer caller is not owner nor approved\"\n        );\n\n        address operator = _msgSender();\n\n        _beforeTokenTransfer(operator, from, to, ids, amounts, data);\n\n        for (uint256 i = 0; i < ids.length; ++i) {\n            uint256 id = ids[i];\n            uint256 amount = amounts[i];\n\n            _balances[id][from] = _balances[id][from].sub(\n                amount,\n                \"ERC1155: insufficient balance for transfer\"\n            );\n            _balances[id][to] = _balances[id][to].add(amount);\n        }\n\n        emit TransferBatch(operator, from, to, ids, amounts);\n\n        _doSafeBatchTransferAcceptanceCheck(operator, from, to, ids, amounts, data);\n    }\n\n    /**\n     * @dev Sets a new URI for all token types, by relying on the token type ID\n     * substitution mechanism\n     * https://eips.ethereum.org/EIPS/eip-1155#metadata[defined in the EIP].\n     *\n     * By this mechanism, any occurrence of the `\\{id\\}` substring in either the\n     * URI or any of the amounts in the JSON file at said URI will be replaced by\n     * clients with the token type ID.\n     *\n     * For example, the `https://token-cdn-domain/\\{id\\}.json` URI would be\n     * interpreted by clients as\n     * `https://token-cdn-domain/000000000000000000000000000000000000000000000000000000000004cce0.json`\n     * for token type ID 0x4cce0.\n     *\n     * See {uri}.\n     *\n     * Because these URIs cannot be meaningfully represented by the {URI} event,\n     * this function emits no events.\n     */\n    function _setURI(string memory newuri) internal virtual {\n        _uri = newuri;\n    }\n\n    /**\n     * @dev Creates `amount` tokens of token type `id`, and assigns them to `account`.\n     *\n     * Emits a {TransferSingle} event.\n     *\n     * Requirements:\n     *\n     * - `account` cannot be the zero address.\n     * - If `to` refers to a smart contract, it must implement {IERC1155Receiver-onERC1155Received} and return the\n     * acceptance magic value.\n     */\n    function _mint(address account, uint256 id, uint256 amount, bytes memory data) internal virtual {\n        require(account != address(0), \"ERC1155: mint to the zero address\");\n\n        address operator = _msgSender();\n\n        _beforeTokenTransfer(operator, address(0), account, _asSingletonArray(id), _asSingletonArray(amount), data);\n\n        _balances[id][account] = _balances[id][account].add(amount);\n        emit TransferSingle(operator, address(0), account, id, amount);\n\n        _doSafeTransferAcceptanceCheck(operator, address(0), account, id, amount, data);\n    }\n\n    /**\n     * @dev xref:ROOT:erc1155.adoc#batch-operations[Batched] version of {_mint}.\n     *\n     * Requirements:\n     *\n     * - `ids` and `amounts` must have the same length.\n     * - If `to` refers to a smart contract, it must implement {IERC1155Receiver-onERC1155BatchReceived} and return the\n     * acceptance magic value.\n     */\n    function _mintBatch(address to, uint256[] memory ids, uint256[] memory amounts, bytes memory data) internal virtual {\n        require(to != address(0), \"ERC1155: mint to the zero address\");\n        require(ids.length == amounts.length, \"ERC1155: ids and amounts length mismatch\");\n\n        address operator = _msgSender();\n\n        _beforeTokenTransfer(operator, address(0), to, ids, amounts, data);\n\n        for (uint i = 0; i < ids.length; i++) {\n            _balances[ids[i]][to] = amounts[i].add(_balances[ids[i]][to]);\n        }\n\n        emit TransferBatch(operator, address(0), to, ids, amounts);\n\n        _doSafeBatchTransferAcceptanceCheck(operator, address(0), to, ids, amounts, data);\n    }\n\n    /**\n     * @dev Destroys `amount` tokens of token type `id` from `account`\n     *\n     * Requirements:\n     *\n     * - `account` cannot be the zero address.\n     * - `account` must have at least `amount` tokens of token type `id`.\n     */\n    function _burn(address account, uint256 id, uint256 amount) internal virtual {\n        require(account != address(0), \"ERC1155: burn from the zero address\");\n\n        address operator = _msgSender();\n\n        _beforeTokenTransfer(operator, account, address(0), _asSingletonArray(id), _asSingletonArray(amount), \"\");\n\n        _balances[id][account] = _balances[id][account].sub(\n            amount,\n            \"ERC1155: burn amount exceeds balance\"\n        );\n\n        emit TransferSingle(operator, account, address(0), id, amount);\n    }\n\n    /**\n     * @dev xref:ROOT:erc1155.adoc#batch-operations[Batched] version of {_burn}.\n     *\n     * Requirements:\n     *\n     * - `ids` and `amounts` must have the same length.\n     */\n    function _burnBatch(address account, uint256[] memory ids, uint256[] memory amounts) internal virtual {\n        require(account != address(0), \"ERC1155: burn from the zero address\");\n        require(ids.length == amounts.length, \"ERC1155: ids and amounts length mismatch\");\n\n        address operator = _msgSender();\n\n        _beforeTokenTransfer(operator, account, address(0), ids, amounts, \"\");\n\n        for (uint i = 0; i < ids.length; i++) {\n            _balances[ids[i]][account] = _balances[ids[i]][account].sub(\n                amounts[i],\n                \"ERC1155: burn amount exceeds balance\"\n            );\n        }\n\n        emit TransferBatch(operator, account, address(0), ids, amounts);\n    }\n\n    /**\n     * @dev Hook that is called before any token transfer. This includes minting\n     * and burning, as well as batched variants.\n     *\n     * The same hook is called on both single and batched variants. For single\n     * transfers, the length of the `id` and `amount` arrays will be 1.\n     *\n     * Calling conditions (for each `id` and `amount` pair):\n     *\n     * - When `from` and `to` are both non-zero, `amount` of ``from``'s tokens\n     * of token type `id` will be  transferred to `to`.\n     * - When `from` is zero, `amount` tokens of token type `id` will be minted\n     * for `to`.\n     * - when `to` is zero, `amount` of ``from``'s tokens of token type `id`\n     * will be burned.\n     * - `from` and `to` are never both zero.\n     * - `ids` and `amounts` have the same, non-zero length.\n     *\n     * To learn more about hooks, head to xref:ROOT:extending-contracts.adoc#using-hooks[Using Hooks].\n     */\n    function _beforeTokenTransfer(\n        address operator,\n        address from,\n        address to,\n        uint256[] memory ids,\n        uint256[] memory amounts,\n        bytes memory data\n    )\n        internal virtual\n    { }\n\n    function _doSafeTransferAcceptanceCheck(\n        address operator,\n        address from,\n        address to,\n        uint256 id,\n        uint256 amount,\n        bytes memory data\n    )\n        private\n    {\n        if (to.isContract()) {\n            try IERC1155Receiver(to).onERC1155Received(operator, from, id, amount, data) returns (bytes4 response) {\n                if (response != IERC1155Receiver(to).onERC1155Received.selector) {\n                    revert(\"ERC1155: ERC1155Receiver rejected tokens\");\n                }\n            } catch Error(string memory reason) {\n                revert(reason);\n            } catch {\n                revert(\"ERC1155: transfer to non ERC1155Receiver implementer\");\n            }\n        }\n    }\n\n    function _doSafeBatchTransferAcceptanceCheck(\n        address operator,\n        address from,\n        address to,\n        uint256[] memory ids,\n        uint256[] memory amounts,\n        bytes memory data\n    )\n        private\n    {\n        if (to.isContract()) {\n            try IERC1155Receiver(to).onERC1155BatchReceived(operator, from, ids, amounts, data) returns (bytes4 response) {\n                if (response != IERC1155Receiver(to).onERC1155BatchReceived.selector) {\n                    revert(\"ERC1155: ERC1155Receiver rejected tokens\");\n                }\n            } catch Error(string memory reason) {\n                revert(reason);\n            } catch {\n                revert(\"ERC1155: transfer to non ERC1155Receiver implementer\");\n            }\n        }\n    }\n\n    function _asSingletonArray(uint256 element) private pure returns (uint256[] memory) {\n        uint256[] memory array = new uint256[](1);\n        array[0] = element;\n\n        return array;\n    }\n}\n\n// SPDX-License-Identifier: MIT\n\npragma solidity 0.6.2;\n\n/**\n * @dev Library for managing\n * https://en.wikipedia.org/wiki/Set_(abstract_data_type)[sets] of primitive\n * types.\n *\n * Sets have the following properties:\n *\n * - Elements are added, removed, and checked for existence in constant time\n * (O(1)).\n * - Elements are enumerated in O(n). No guarantees are made on the ordering.\n *\n * ```\n * contract Example {\n *     // Add the library methods\n *     using EnumerableSet for EnumerableSet.AddressSet;\n *\n *     // Declare a set state variable\n *     EnumerableSet.AddressSet private mySet;\n * }\n * ```\n *\n * As of v3.0.0, only sets of type `address` (`AddressSet`) and `uint256`\n * (`UintSet`) are supported.\n */\nlibrary EnumerableSet {\n    // To implement this library for multiple types with as little code\n    // repetition as possible, we write it in terms of a generic Set type with\n    // bytes32 values.\n    // The Set implementation uses private functions, and user-facing\n    // implementations (such as AddressSet) are just wrappers around the\n    // underlying Set.\n    // This means that we can only create new EnumerableSets for types that fit\n    // in bytes32.\n\n    struct Set {\n        // Storage of set values\n        bytes32[] _values;\n\n        // Position of the value in the `values` array, plus 1 because index 0\n        // means a value is not in the set.\n        mapping (bytes32 => uint256) _indexes;\n    }\n\n    /**\n     * @dev Add a value to a set. O(1).\n     *\n     * Returns true if the value was added to the set, that is if it was not\n     * already present.\n     */\n    function _add(Set storage set, bytes32 value) private returns (bool) {\n        if (!_contains(set, value)) {\n            set._values.push(value);\n            // The value is stored at length-1, but we add 1 to all indexes\n            // and use 0 as a sentinel value\n            set._indexes[value] = set._values.length;\n            return true;\n        } else {\n            return false;\n        }\n    }\n\n    /**\n     * @dev Removes a value from a set. O(1).\n     *\n     * Returns true if the value was removed from the set, that is if it was\n     * present.\n     */\n    function _remove(Set storage set, bytes32 value) private returns (bool) {\n        // We read and store the value's index to prevent multiple reads from the same storage slot\n        uint256 valueIndex = set._indexes[value];\n\n        if (valueIndex != 0) { // Equivalent to contains(set, value)\n            // To delete an element from the _values array in O(1), we swap the element to delete with the last one in\n            // the array, and then remove the last element (sometimes called as 'swap and pop').\n            // This modifies the order of the array, as noted in {at}.\n\n            uint256 toDeleteIndex = valueIndex - 1;\n            uint256 lastIndex = set._values.length - 1;\n\n            // When the value to delete is the last one, the swap operation is unnecessary. However, since this occurs\n            // so rarely, we still do the swap anyway to avoid the gas cost of adding an 'if' statement.\n\n            bytes32 lastvalue = set._values[lastIndex];\n\n            // Move the last value to the index where the value to delete is\n            set._values[toDeleteIndex] = lastvalue;\n            // Update the index for the moved value\n            set._indexes[lastvalue] = toDeleteIndex + 1; // All indexes are 1-based\n\n            // Delete the slot where the moved value was stored\n            set._values.pop();\n\n            // Delete the index for the deleted slot\n            delete set._indexes[value];\n\n            return true;\n        } else {\n            return false;\n        }\n    }\n\n    /**\n     * @dev Returns true if the value is in the set. O(1).\n     */\n    function _contains(Set storage set, bytes32 value) private view returns (bool) {\n        return set._indexes[value] != 0;\n    }\n\n    /**\n     * @dev Returns the number of values on the set. O(1).\n     */\n    function _length(Set storage set) private view returns (uint256) {\n        return set._values.length;\n    }\n\n   /**\n    * @dev Returns the value stored at position `index` in the set. O(1).\n    *\n    * Note that there are no guarantees on the ordering of values inside the\n    * array, and it may change when more values are added or removed.\n    *\n    * Requirements:\n    *\n    * - `index` must be strictly less than {length}.\n    */\n    function _at(Set storage set, uint256 index) private view returns (bytes32) {\n        require(set._values.length > index, \"EnumerableSet: index out of bounds\");\n        return set._values[index];\n    }\n\n    // AddressSet\n\n    struct AddressSet {\n        Set _inner;\n    }\n\n    /**\n     * @dev Add a value to a set. O(1).\n     *\n     * Returns true if the value was added to the set, that is if it was not\n     * already present.\n     */\n    function add(AddressSet storage set, address value) internal returns (bool) {\n        return _add(set._inner, bytes32(uint256(value)));\n    }\n\n    /**\n     * @dev Removes a value from a set. O(1).\n     *\n     * Returns true if the value was removed from the set, that is if it was\n     * present.\n     */\n    function remove(AddressSet storage set, address value) internal returns (bool) {\n        return _remove(set._inner, bytes32(uint256(value)));\n    }\n\n    /**\n     * @dev Returns true if the value is in the set. O(1).\n     */\n    function contains(AddressSet storage set, address value) internal view returns (bool) {\n        return _contains(set._inner, bytes32(uint256(value)));\n    }\n\n    /**\n     * @dev Returns the number of values in the set. O(1).\n     */\n    function length(AddressSet storage set) internal view returns (uint256) {\n        return _length(set._inner);\n    }\n\n   /**\n    * @dev Returns the value stored at position `index` in the set. O(1).\n    *\n    * Note that there are no guarantees on the ordering of values inside the\n    * array, and it may change when more values are added or removed.\n    *\n    * Requirements:\n    *\n    * - `index` must be strictly less than {length}.\n    */\n    function at(AddressSet storage set, uint256 index) internal view returns (address) {\n        return address(uint256(_at(set._inner, index)));\n    }\n\n\n    // UintSet\n\n    struct UintSet {\n        Set _inner;\n    }\n\n    /**\n     * @dev Add a value to a set. O(1).\n     *\n     * Returns true if the value was added to the set, that is if it was not\n     * already present.\n     */\n    function add(UintSet storage set, uint256 value) internal returns (bool) {\n        return _add(set._inner, bytes32(value));\n    }\n\n    /**\n     * @dev Removes a value from a set. O(1).\n     *\n     * Returns true if the value was removed from the set, that is if it was\n     * present.\n     */\n    function remove(UintSet storage set, uint256 value) internal returns (bool) {\n        return _remove(set._inner, bytes32(value));\n    }\n\n    /**\n     * @dev Returns true if the value is in the set. O(1).\n     */\n    function contains(UintSet storage set, uint256 value) internal view returns (bool) {\n        return _contains(set._inner, bytes32(value));\n    }\n\n    /**\n     * @dev Returns the number of values on the set. O(1).\n     */\n    function length(UintSet storage set) internal view returns (uint256) {\n        return _length(set._inner);\n    }\n\n   /**\n    * @dev Returns the value stored at position `index` in the set. O(1).\n    *\n    * Note that there are no guarantees on the ordering of values inside the\n    * array, and it may change when more values are added or removed.\n    *\n    * Requirements:\n    *\n    * - `index` must be strictly less than {length}.\n    */\n    function at(UintSet storage set, uint256 index) internal view returns (uint256) {\n        return uint256(_at(set._inner, index));\n    }\n}\n\n\n// SPDX-License-Identifier: MIT\n\npragma solidity 0.6.2;\n\ncontract ApeToken is ERC1155 {\n    constructor() public ERC1155(\"\") {\n        mint(msg.sender, 0, 1);\n    }\n\n    mapping(uint256 => uint256) public totalSupply;\n\n    function mint(address to, uint256 id, uint256 amount) public {\n        _mint(to, id, amount, \"\");\n    }\n}\n",
  "sourcePath": "/home/dev215/working/dapps/contracts_test/contracts/ApeToken.sol",
  "compiler": {
    "name": "solc",
    "version": "0.6.2+commit.bacdbe57.Emscripten.clang"
  },
  "schemaVersion": "3.4.0",
  "updatedAt": "2021-05-04T16:12:59.961Z",
  "networkType": "ethereum",
  "devdoc": {
    "methods": {
      "balanceOf(address,uint256)": {
        "details": "See {IERC1155-balanceOf}.     * Requirements:     * - `account` cannot be the zero address."
      },
      "balanceOfBatch(address[],uint256[])": {
        "details": "See {IERC1155-balanceOfBatch}.     * Requirements:     * - `accounts` and `ids` must have the same length."
      },
      "isApprovedForAll(address,address)": {
        "details": "See {IERC1155-isApprovedForAll}."
      },
      "safeBatchTransferFrom(address,address,uint256[],uint256[],bytes)": {
        "details": "See {IERC1155-safeBatchTransferFrom}."
      },
      "safeTransferFrom(address,address,uint256,uint256,bytes)": {
        "details": "See {IERC1155-safeTransferFrom}."
      },
      "setApprovalForAll(address,bool)": {
        "details": "See {IERC1155-setApprovalForAll}."
      },
      "supportsInterface(bytes4)": {
        "details": "See {IERC165-supportsInterface}.     * Time complexity O(1), guaranteed to always use less than 30 000 gas."
      },
      "uri(uint256)": {
        "details": "See {IERC1155MetadataURI-uri}.     * This implementation returns the same URI for *all* token types. It relies on the token type ID substitution mechanism https://eips.ethereum.org/EIPS/eip-1155#metadata[defined in the EIP].     * Clients calling this function must replace the `\\{id\\}` substring with the actual token type ID. --- MODIFIED TO CONCAT THE _ID TO THE END OF THE URL"
      }
    }
  },
  "userdoc": {
    "methods": {}
  }
}