{
  "contractName": "StakingPool",
  "abi": [
    {
      "inputs": [
        {
          "internalType": "address",
          "name": "_apeToken",
          "type": "address"
        },
        {
          "internalType": "address",
          "name": "_apeOwner",
          "type": "address"
        }
      ],
      "stateMutability": "nonpayable",
      "type": "constructor"
    },
    {
      "anonymous": false,
      "inputs": [
        {
          "indexed": true,
          "internalType": "address",
          "name": "user",
          "type": "address"
        },
        {
          "indexed": false,
          "internalType": "uint256",
          "name": "tokenId",
          "type": "uint256"
        }
      ],
      "name": "Claimed",
      "type": "event"
    },
    {
      "anonymous": false,
      "inputs": [
        {
          "indexed": true,
          "internalType": "address",
          "name": "previousOwner",
          "type": "address"
        },
        {
          "indexed": true,
          "internalType": "address",
          "name": "newOwner",
          "type": "address"
        }
      ],
      "name": "OwnershipTransferred",
      "type": "event"
    },
    {
      "anonymous": false,
      "inputs": [
        {
          "indexed": false,
          "internalType": "address",
          "name": "account",
          "type": "address"
        }
      ],
      "name": "Paused",
      "type": "event"
    },
    {
      "anonymous": false,
      "inputs": [
        {
          "indexed": false,
          "internalType": "address",
          "name": "token",
          "type": "address"
        },
        {
          "indexed": false,
          "internalType": "uint256",
          "name": "amount",
          "type": "uint256"
        }
      ],
      "name": "Recovered",
      "type": "event"
    },
    {
      "anonymous": false,
      "inputs": [
        {
          "indexed": false,
          "internalType": "uint256",
          "name": "reward",
          "type": "uint256"
        }
      ],
      "name": "RewardAdded",
      "type": "event"
    },
    {
      "anonymous": false,
      "inputs": [
        {
          "indexed": true,
          "internalType": "address",
          "name": "user",
          "type": "address"
        },
        {
          "indexed": false,
          "internalType": "uint256",
          "name": "reward",
          "type": "uint256"
        }
      ],
      "name": "RewardPaid",
      "type": "event"
    },
    {
      "anonymous": false,
      "inputs": [
        {
          "indexed": false,
          "internalType": "uint256",
          "name": "newDuration",
          "type": "uint256"
        }
      ],
      "name": "RewardsDurationUpdated",
      "type": "event"
    },
    {
      "anonymous": false,
      "inputs": [
        {
          "indexed": true,
          "internalType": "address",
          "name": "user",
          "type": "address"
        },
        {
          "indexed": false,
          "internalType": "uint256",
          "name": "tokenId",
          "type": "uint256"
        }
      ],
      "name": "Staked",
      "type": "event"
    },
    {
      "anonymous": false,
      "inputs": [
        {
          "indexed": false,
          "internalType": "address",
          "name": "account",
          "type": "address"
        }
      ],
      "name": "Unpaused",
      "type": "event"
    },
    {
      "anonymous": false,
      "inputs": [
        {
          "indexed": true,
          "internalType": "address",
          "name": "user",
          "type": "address"
        },
        {
          "indexed": false,
          "internalType": "uint256",
          "name": "tokenId",
          "type": "uint256"
        }
      ],
      "name": "Withdrawn",
      "type": "event"
    },
    {
      "inputs": [],
      "name": "lastUpdateTime",
      "outputs": [
        {
          "internalType": "uint256",
          "name": "",
          "type": "uint256"
        }
      ],
      "stateMutability": "view",
      "type": "function",
      "constant": true
    },
    {
      "inputs": [],
      "name": "owner",
      "outputs": [
        {
          "internalType": "address",
          "name": "",
          "type": "address"
        }
      ],
      "stateMutability": "view",
      "type": "function",
      "constant": true
    },
    {
      "inputs": [],
      "name": "paused",
      "outputs": [
        {
          "internalType": "bool",
          "name": "",
          "type": "bool"
        }
      ],
      "stateMutability": "view",
      "type": "function",
      "constant": true
    },
    {
      "inputs": [],
      "name": "periodFinish",
      "outputs": [
        {
          "internalType": "uint256",
          "name": "",
          "type": "uint256"
        }
      ],
      "stateMutability": "view",
      "type": "function",
      "constant": true
    },
    {
      "inputs": [],
      "name": "renounceOwnership",
      "outputs": [],
      "stateMutability": "nonpayable",
      "type": "function"
    },
    {
      "inputs": [],
      "name": "rewardPerTokenStored",
      "outputs": [
        {
          "internalType": "uint256",
          "name": "",
          "type": "uint256"
        }
      ],
      "stateMutability": "view",
      "type": "function",
      "constant": true
    },
    {
      "inputs": [],
      "name": "rewardRate",
      "outputs": [
        {
          "internalType": "uint256",
          "name": "",
          "type": "uint256"
        }
      ],
      "stateMutability": "view",
      "type": "function",
      "constant": true
    },
    {
      "inputs": [
        {
          "internalType": "address",
          "name": "",
          "type": "address"
        }
      ],
      "name": "rewards",
      "outputs": [
        {
          "internalType": "uint256",
          "name": "",
          "type": "uint256"
        }
      ],
      "stateMutability": "view",
      "type": "function",
      "constant": true
    },
    {
      "inputs": [],
      "name": "rewardsDuration",
      "outputs": [
        {
          "internalType": "uint256",
          "name": "",
          "type": "uint256"
        }
      ],
      "stateMutability": "view",
      "type": "function",
      "constant": true
    },
    {
      "inputs": [
        {
          "internalType": "address",
          "name": "newOwner",
          "type": "address"
        }
      ],
      "name": "transferOwnership",
      "outputs": [],
      "stateMutability": "nonpayable",
      "type": "function"
    },
    {
      "inputs": [
        {
          "internalType": "address",
          "name": "",
          "type": "address"
        }
      ],
      "name": "userRewardPerTokenPaid",
      "outputs": [
        {
          "internalType": "uint256",
          "name": "",
          "type": "uint256"
        }
      ],
      "stateMutability": "view",
      "type": "function",
      "constant": true
    },
    {
      "inputs": [],
      "name": "deposit",
      "outputs": [],
      "stateMutability": "payable",
      "type": "function",
      "payable": true
    },
    {
      "inputs": [],
      "name": "lastTimeRewardApplicable",
      "outputs": [
        {
          "internalType": "uint256",
          "name": "",
          "type": "uint256"
        }
      ],
      "stateMutability": "view",
      "type": "function",
      "constant": true
    },
    {
      "inputs": [],
      "name": "rewardPerToken",
      "outputs": [
        {
          "internalType": "uint256",
          "name": "",
          "type": "uint256"
        }
      ],
      "stateMutability": "view",
      "type": "function",
      "constant": true
    },
    {
      "inputs": [
        {
          "internalType": "address",
          "name": "account",
          "type": "address"
        }
      ],
      "name": "earned",
      "outputs": [
        {
          "internalType": "uint256",
          "name": "",
          "type": "uint256"
        }
      ],
      "stateMutability": "view",
      "type": "function",
      "constant": true
    },
    {
      "inputs": [],
      "name": "getRewardForDuration",
      "outputs": [
        {
          "internalType": "uint256",
          "name": "",
          "type": "uint256"
        }
      ],
      "stateMutability": "view",
      "type": "function",
      "constant": true
    },
    {
      "inputs": [
        {
          "internalType": "uint256",
          "name": "a",
          "type": "uint256"
        },
        {
          "internalType": "uint256",
          "name": "b",
          "type": "uint256"
        }
      ],
      "name": "min",
      "outputs": [
        {
          "internalType": "uint256",
          "name": "",
          "type": "uint256"
        }
      ],
      "stateMutability": "pure",
      "type": "function",
      "constant": true
    },
    {
      "inputs": [],
      "name": "getReward",
      "outputs": [],
      "stateMutability": "nonpayable",
      "type": "function"
    },
    {
      "inputs": [
        {
          "internalType": "uint256",
          "name": "reward",
          "type": "uint256"
        }
      ],
      "name": "notifyRewardAmount",
      "outputs": [],
      "stateMutability": "nonpayable",
      "type": "function"
    },
    {
      "inputs": [
        {
          "internalType": "uint256",
          "name": "_rewardsDuration",
          "type": "uint256"
        }
      ],
      "name": "setRewardsDuration",
      "outputs": [],
      "stateMutability": "nonpayable",
      "type": "function"
    },
    {
      "inputs": [
        {
          "internalType": "uint256[]",
          "name": "id",
          "type": "uint256[]"
        },
        {
          "internalType": "uint256",
          "name": "ape",
          "type": "uint256"
        }
      ],
      "name": "initiate",
      "outputs": [],
      "stateMutability": "nonpayable",
      "type": "function"
    },
    {
      "inputs": [
        {
          "internalType": "uint256[]",
          "name": "female",
          "type": "uint256[]"
        },
        {
          "internalType": "uint256[]",
          "name": "baby",
          "type": "uint256[]"
        }
      ],
      "name": "initiateBabies",
      "outputs": [],
      "stateMutability": "nonpayable",
      "type": "function"
    },
    {
      "inputs": [
        {
          "internalType": "uint256[]",
          "name": "certificate",
          "type": "uint256[]"
        }
      ],
      "name": "initiateCertificates",
      "outputs": [],
      "stateMutability": "nonpayable",
      "type": "function"
    },
    {
      "inputs": [
        {
          "internalType": "uint256",
          "name": "tokenId",
          "type": "uint256"
        }
      ],
      "name": "stake",
      "outputs": [],
      "stateMutability": "nonpayable",
      "type": "function"
    },
    {
      "inputs": [
        {
          "internalType": "uint256[]",
          "name": "tokenId",
          "type": "uint256[]"
        }
      ],
      "name": "stakeBatch",
      "outputs": [],
      "stateMutability": "nonpayable",
      "type": "function"
    },
    {
      "inputs": [
        {
          "internalType": "uint256",
          "name": "tokenId",
          "type": "uint256"
        }
      ],
      "name": "withdraw",
      "outputs": [],
      "stateMutability": "nonpayable",
      "type": "function"
    },
    {
      "inputs": [],
      "name": "exit",
      "outputs": [],
      "stateMutability": "nonpayable",
      "type": "function"
    },
    {
      "inputs": [],
      "name": "claimBaby",
      "outputs": [
        {
          "internalType": "uint256",
          "name": "",
          "type": "uint256"
        }
      ],
      "stateMutability": "nonpayable",
      "type": "function"
    },
    {
      "inputs": [],
      "name": "pause",
      "outputs": [],
      "stateMutability": "nonpayable",
      "type": "function"
    },
    {
      "inputs": [],
      "name": "unpause",
      "outputs": [],
      "stateMutability": "nonpayable",
      "type": "function"
    },
    {
      "inputs": [],
      "name": "withdrawEther",
      "outputs": [],
      "stateMutability": "nonpayable",
      "type": "function"
    },
    {
      "inputs": [
        {
          "internalType": "address",
          "name": "tokenAddress",
          "type": "address"
        },
        {
          "internalType": "uint256",
          "name": "tokenAmount",
          "type": "uint256"
        }
      ],
      "name": "recoverERC20",
      "outputs": [],
      "stateMutability": "nonpayable",
      "type": "function"
    },
    {
      "inputs": [
        {
          "internalType": "address",
          "name": "",
          "type": "address"
        },
        {
          "internalType": "address",
          "name": "",
          "type": "address"
        },
        {
          "internalType": "uint256",
          "name": "",
          "type": "uint256"
        },
        {
          "internalType": "uint256",
          "name": "",
          "type": "uint256"
        },
        {
          "internalType": "bytes",
          "name": "",
          "type": "bytes"
        }
      ],
      "name": "onERC1155Received",
      "outputs": [
        {
          "internalType": "bytes4",
          "name": "",
          "type": "bytes4"
        }
      ],
      "stateMutability": "pure",
      "type": "function",
      "constant": true
    },
    {
      "inputs": [],
      "name": "totalSupply",
      "outputs": [
        {
          "internalType": "uint256",
          "name": "",
          "type": "uint256"
        }
      ],
      "stateMutability": "view",
      "type": "function",
      "constant": true
    },
    {
      "inputs": [
        {
          "internalType": "address",
          "name": "owner",
          "type": "address"
        }
      ],
      "name": "getStaked",
      "outputs": [
        {
          "internalType": "uint256[]",
          "name": "",
          "type": "uint256[]"
        }
      ],
      "stateMutability": "view",
      "type": "function",
      "constant": true
    }
  ],
  "bytecode": "0x60806040526000600f556001601055603c6011553480156200002057600080fd5b5060405162004e9d38038062004e9d833981810160405260408110156200004657600080fd5b81019080805190602001909291908051906020019092919050505060016000819055506000600160006101000a81548160ff021916908315150217905550600062000096620001be60201b60201c565b9050806001806101000a81548173ffffffffffffffffffffffffffffffffffffffff021916908373ffffffffffffffffffffffffffffffffffffffff1602179055508073ffffffffffffffffffffffffffffffffffffffff16600073ffffffffffffffffffffffffffffffffffffffff167f8be0079c531659141344cd1fd0a4f28419497f9722a3daafe3b4186f6b6457e060405160405180910390a35081600260006101000a81548173ffffffffffffffffffffffffffffffffffffffff021916908373ffffffffffffffffffffffffffffffffffffffff16021790555080600360006101000a81548173ffffffffffffffffffffffffffffffffffffffff021916908373ffffffffffffffffffffffffffffffffffffffff1602179055505050620001c6565b600033905090565b614cc780620001d66000396000f3fe6080604052600436106102035760003560e01c806380faa57d11610118578063cc1a378f116100a0578063e9fad8ee1161006f578063e9fad8ee14610b72578063ebe2b12b14610b89578063ee6c115014610bb4578063f23a6e6114610bdf578063f2fde38b14610d2e57610203565b8063cc1a378f14610ad7578063cd3daf9d14610b12578063d0e30db014610b3d578063df136d6514610b4757610203565b80638da5cb5b116100e75780638da5cb5b14610808578063a5455bc014610849578063a694fc3a14610918578063c8f33c9114610953578063ca9cf47c1461097e57610203565b806380faa57d146107065780638456cb59146107315780638980f11f146107485780638b876347146107a357610203565b80633c6b16ab1161019b5780635f5655181161016a5780635f5655181461058f578063715018a6146106545780637362377b1461066b5780637ae2b5c7146106825780637b0a47ee146106db57610203565b80633c6b16ab146104f95780633d18b912146105345780633f4ba83a1461054b5780635c975abb1461056257610203565b8063230f436d116101d7578063230f436d146103285780632e1a7d4d146103ed578063386a952514610428578063399080ec1461045357610203565b80628cc262146102085780630700037d1461026d57806318160ddd146102d25780631c1f78eb146102fd575b600080fd5b34801561021457600080fd5b506102576004803603602081101561022b57600080fd5b81019080803573ffffffffffffffffffffffffffffffffffffffff169060200190929190505050610d7f565b6040518082815260200191505060405180910390f35b34801561027957600080fd5b506102bc6004803603602081101561029057600080fd5b81019080803573ffffffffffffffffffffffffffffffffffffffff169060200190929190505050610e9d565b6040518082815260200191505060405180910390f35b3480156102de57600080fd5b506102e7610eb5565b6040518082815260200191505060405180910390f35b34801561030957600080fd5b50610312610ebf565b6040518082815260200191505060405180910390f35b34801561033457600080fd5b506103eb6004803603602081101561034b57600080fd5b810190808035906020019064010000000081111561036857600080fd5b82018360208201111561037a57600080fd5b8035906020019184602083028401116401000000008311171561039c57600080fd5b919080806020026020016040519081016040528093929190818152602001838360200280828437600081840152601f19601f820116905080830192505050505050509192919290505050610edd565b005b3480156103f957600080fd5b506104266004803603602081101561041057600080fd5b8101908080359060200190929190505050610f1f565b005b34801561043457600080fd5b5061043d61155e565b6040518082815260200191505060405180910390f35b34801561045f57600080fd5b506104a26004803603602081101561047657600080fd5b81019080803573ffffffffffffffffffffffffffffffffffffffff169060200190929190505050611564565b6040518080602001828103825283818151815260200191508051906020019060200280838360005b838110156104e55780820151818401526020810190506104ca565b505050509050019250505060405180910390f35b34801561050557600080fd5b506105326004803603602081101561051c57600080fd5b81019080803590602001909291905050506115fb565b005b34801561054057600080fd5b50610549611922565b005b34801561055757600080fd5b50610560611bbb565b005b34801561056e57600080fd5b50610577611d5c565b60405180821515815260200191505060405180910390f35b34801561059b57600080fd5b50610652600480360360208110156105b257600080fd5b81019080803590602001906401000000008111156105cf57600080fd5b8201836020820111156105e157600080fd5b8035906020019184602083028401116401000000008311171561060357600080fd5b919080806020026020016040519081016040528093929190818152602001838360200280828437600081840152601f19601f820116905080830192505050505050509192919290505050611d73565b005b34801561066057600080fd5b50610669611e9a565b005b34801561067757600080fd5b50610680612020565b005b34801561068e57600080fd5b506106c5600480360360408110156106a557600080fd5b810190808035906020019092919080359060200190929190505050612137565b6040518082815260200191505060405180910390f35b3480156106e757600080fd5b506106f0612150565b6040518082815260200191505060405180910390f35b34801561071257600080fd5b5061071b612156565b6040518082815260200191505060405180910390f35b34801561073d57600080fd5b50610746612169565b005b34801561075457600080fd5b506107a16004803603604081101561076b57600080fd5b81019080803573ffffffffffffffffffffffffffffffffffffffff1690602001909291908035906020019092919050505061230b565b005b3480156107af57600080fd5b506107f2600480360360208110156107c657600080fd5b81019080803573ffffffffffffffffffffffffffffffffffffffff169060200190929190505050612559565b6040518082815260200191505060405180910390f35b34801561081457600080fd5b5061081d612571565b604051808273ffffffffffffffffffffffffffffffffffffffff16815260200191505060405180910390f35b34801561085557600080fd5b506109166004803603604081101561086c57600080fd5b810190808035906020019064010000000081111561088957600080fd5b82018360208201111561089b57600080fd5b803590602001918460208302840111640100000000831117156108bd57600080fd5b919080806020026020016040519081016040528093929190818152602001838360200280828437600081840152601f19601f82011690508083019250505050505050919291929080359060200190929190505050612599565b005b34801561092457600080fd5b506109516004803603602081101561093b57600080fd5b8101908080359060200190929190505050612825565b005b34801561095f57600080fd5b50610968613078565b6040518082815260200191505060405180910390f35b34801561098a57600080fd5b50610ad5600480360360408110156109a157600080fd5b81019080803590602001906401000000008111156109be57600080fd5b8201836020820111156109d057600080fd5b803590602001918460208302840111640100000000831117156109f257600080fd5b919080806020026020016040519081016040528093929190818152602001838360200280828437600081840152601f19601f82011690508083019250505050505050919291929080359060200190640100000000811115610a5257600080fd5b820183602082011115610a6457600080fd5b80359060200191846020830284011164010000000083111715610a8657600080fd5b919080806020026020016040519081016040528093929190818152602001838360200280828437600081840152601f19601f82011690508083019250505050505050919291929050505061307e565b005b348015610ae357600080fd5b50610b1060048036036020811015610afa57600080fd5b8101908080359060200190929190505050613244565b005b348015610b1e57600080fd5b50610b276133a9565b6040518082815260200191505060405180910390f35b610b45613430565b005b348015610b5357600080fd5b50610b5c613432565b6040518082815260200191505060405180910390f35b348015610b7e57600080fd5b50610b87613438565b005b348015610b9557600080fd5b50610b9e613504565b6040518082815260200191505060405180910390f35b348015610bc057600080fd5b50610bc961350a565b6040518082815260200191505060405180910390f35b348015610beb57600080fd5b50610cf9600480360360a0811015610c0257600080fd5b81019080803573ffffffffffffffffffffffffffffffffffffffff169060200190929190803573ffffffffffffffffffffffffffffffffffffffff169060200190929190803590602001909291908035906020019092919080359060200190640100000000811115610c7357600080fd5b820183602082011115610c8557600080fd5b80359060200191846001830284011164010000000083111715610ca757600080fd5b91908080601f016020809104026020016040519081016040528093929190818152602001838380828437600081840152601f19601f820116905080830192505050505050509192919290505050613d52565b60405180827bffffffffffffffffffffffffffffffffffffffffffffffffffffffff1916815260200191505060405180910390f35b348015610d3a57600080fd5b50610d7d60048036036020811015610d5157600080fd5b81019080803573ffffffffffffffffffffffffffffffffffffffff169060200190929190505050613d67565b005b6000610e96601560008473ffffffffffffffffffffffffffffffffffffffff1673ffffffffffffffffffffffffffffffffffffffff16815260200190815260200160002054610e88670de0b6b3a7640000610e7a610e2c601460008973ffffffffffffffffffffffffffffffffffffffff1673ffffffffffffffffffffffffffffffffffffffff16815260200190815260200160002054610e1e6133a9565b613f7290919063ffffffff16565b601760008973ffffffffffffffffffffffffffffffffffffffff1673ffffffffffffffffffffffffffffffffffffffff16815260200190815260200160002054613fbc90919063ffffffff16565b61404290919063ffffffff16565b61408c90919063ffffffff16565b9050919050565b60156020528060005260406000206000915090505481565b6000601654905090565b6000610ed8601154601054613fbc90919063ffffffff16565b905090565b60008082519050600091505b80821015610f1a57610f0d838381518110610f0057fe5b6020026020010151612825565b8180600101925050610ee9565b505050565b600160009054906101000a900460ff1615610fa2576040517f08c379a00000000000000000000000000000000000000000000000000000000081526004018080602001828103825260108152602001807f5061757361626c653a207061757365640000000000000000000000000000000081525060200191505060405180910390fd5b33610fab6133a9565b601381905550610fb9612156565b601281905550600073ffffffffffffffffffffffffffffffffffffffff168173ffffffffffffffffffffffffffffffffffffffff161461108657610ffc81610d7f565b601560008373ffffffffffffffffffffffffffffffffffffffff1673ffffffffffffffffffffffffffffffffffffffff16815260200190815260200160002081905550601354601460008373ffffffffffffffffffffffffffffffffffffffff1673ffffffffffffffffffffffffffffffffffffffff168152602001908152602001600020819055505b61108f82614114565b611101576040517f08c379a000000000000000000000000000000000000000000000000000000000815260040180806020018281038252600a8152602001807f6e6f74207374616b65640000000000000000000000000000000000000000000081525060200191505060405180910390fd5b600115156008600084815260200190815260200160002060009054906101000a900460ff16151514156111e857600560003373ffffffffffffffffffffffffffffffffffffffff1673ffffffffffffffffffffffffffffffffffffffff168152602001908152602001600020600081819054906101000a900460ff16809291906001900391906101000a81548160ff021916908360ff160217905550506000600d60003373ffffffffffffffffffffffffffffffffffffffff1673ffffffffffffffffffffffffffffffffffffffff16815260200190815260200160002081905550611341565b600115156009600084815260200190815260200160002060009054906101000a900460ff16151514156112cf57600660003373ffffffffffffffffffffffffffffffffffffffff1673ffffffffffffffffffffffffffffffffffffffff168152602001908152602001600020600081819054906101000a900460ff16809291906001900391906101000a81548160ff021916908360ff160217905550506000600d60003373ffffffffffffffffffffffffffffffffffffffff1673ffffffffffffffffffffffffffffffffffffffff16815260200190815260200160002081905550611340565b600760003373ffffffffffffffffffffffffffffffffffffffff1673ffffffffffffffffffffffffffffffffffffffff168152602001908152602001600020600081819054906101000a900460ff16809291906001900391906101000a81548160ff021916908360ff160217905550505b5b6113496141e6565b1561139f57670de0b6b3a7640000601760003373ffffffffffffffffffffffffffffffffffffffff1673ffffffffffffffffffffffffffffffffffffffff168152602001908152602001600020819055506113e5565b6000601760003373ffffffffffffffffffffffffffffffffffffffff1673ffffffffffffffffffffffffffffffffffffffff168152602001908152602001600020819055505b60166000815480929190600190039190505550611401826143ce565b600260009054906101000a900473ffffffffffffffffffffffffffffffffffffffff1673ffffffffffffffffffffffffffffffffffffffff1663f242432a30338560016040518563ffffffff1660e01b8152600401808573ffffffffffffffffffffffffffffffffffffffff1681526020018473ffffffffffffffffffffffffffffffffffffffff16815260200183815260200182815260200180602001828103825260038152602001807f307830000000000000000000000000000000000000000000000000000000000081525060200195505050505050600060405180830381600087803b1580156114f457600080fd5b505af1158015611508573d6000803e3d6000fd5b505050503373ffffffffffffffffffffffffffffffffffffffff167f7084f5476618d8e60b11ef0d7d3f06914655adb8793e28ff7f018d4c76d505d5836040518082815260200191505060405180910390a25050565b60115481565b6060600460008373ffffffffffffffffffffffffffffffffffffffff1673ffffffffffffffffffffffffffffffffffffffff1681526020019081526020016000208054806020026020016040519081016040528092919081815260200182805480156115ef57602002820191906000526020600020905b8154815260200190600101908083116115db575b50505050509050919050565b6116036145b9565b73ffffffffffffffffffffffffffffffffffffffff1660018054906101000a900473ffffffffffffffffffffffffffffffffffffffff1673ffffffffffffffffffffffffffffffffffffffff16146116c3576040517f08c379a00000000000000000000000000000000000000000000000000000000081526004018080602001828103825260208152602001807f4f776e61626c653a2063616c6c6572206973206e6f7420746865206f776e657281525060200191505060405180910390fd5b60006116cd6133a9565b6013819055506116db612156565b601281905550600073ffffffffffffffffffffffffffffffffffffffff168173ffffffffffffffffffffffffffffffffffffffff16146117a85761171e81610d7f565b601560008373ffffffffffffffffffffffffffffffffffffffff1673ffffffffffffffffffffffffffffffffffffffff16815260200190815260200160002081905550601354601460008373ffffffffffffffffffffffffffffffffffffffff1673ffffffffffffffffffffffffffffffffffffffff168152602001908152602001600020819055505b600f5442106117d1576117c66011548361404290919063ffffffff16565b601081905550611833565b60006117e842600f54613f7290919063ffffffff16565b9050600061180160105483613fbc90919063ffffffff16565b905061182a60115461181c838761408c90919063ffffffff16565b61404290919063ffffffff16565b60108190555050505b600047905061184d6011548261404290919063ffffffff16565b60105411156118c4576040517f08c379a00000000000000000000000000000000000000000000000000000000081526004018080602001828103825260188152602001807f50726f76696465642072657761726420746f6f2068696768000000000000000081525060200191505060405180910390fd5b426012819055506118e06011544261408c90919063ffffffff16565b600f819055507fde88a922e0d3b88b24e9623efeb464919c6bf9f66857a65e2bfcf2ce87a9433d836040518082815260200191505060405180910390a1505050565b6002600054141561199b576040517f08c379a000000000000000000000000000000000000000000000000000000000815260040180806020018281038252601f8152602001807f5265656e7472616e637947756172643a207265656e7472616e742063616c6c0081525060200191505060405180910390fd5b6002600081905550336119ac6133a9565b6013819055506119ba612156565b601281905550600073ffffffffffffffffffffffffffffffffffffffff168173ffffffffffffffffffffffffffffffffffffffff1614611a87576119fd81610d7f565b601560008373ffffffffffffffffffffffffffffffffffffffff1673ffffffffffffffffffffffffffffffffffffffff16815260200190815260200160002081905550601354601460008373ffffffffffffffffffffffffffffffffffffffff1673ffffffffffffffffffffffffffffffffffffffff168152602001908152602001600020819055505b6000601560003373ffffffffffffffffffffffffffffffffffffffff1673ffffffffffffffffffffffffffffffffffffffff1681526020019081526020016000205490506000811115611baf576000601560003373ffffffffffffffffffffffffffffffffffffffff1673ffffffffffffffffffffffffffffffffffffffff168152602001908152602001600020819055503373ffffffffffffffffffffffffffffffffffffffff166108fc829081150290604051600060405180830381858888f19350505050158015611b5f573d6000803e3d6000fd5b503373ffffffffffffffffffffffffffffffffffffffff167fe2403640ba68fed3a2f88b7557551d1993f84b99bb10ff833f0cf8db0c5e0486826040518082815260200191505060405180910390a25b50506001600081905550565b611bc36145b9565b73ffffffffffffffffffffffffffffffffffffffff1660018054906101000a900473ffffffffffffffffffffffffffffffffffffffff1673ffffffffffffffffffffffffffffffffffffffff1614611c83576040517f08c379a00000000000000000000000000000000000000000000000000000000081526004018080602001828103825260208152602001807f4f776e61626c653a2063616c6c6572206973206e6f7420746865206f776e657281525060200191505060405180910390fd5b600160009054906101000a900460ff16611d05576040517f08c379a00000000000000000000000000000000000000000000000000000000081526004018080602001828103825260148152602001807f5061757361626c653a206e6f742070617573656400000000000000000000000081525060200191505060405180910390fd5b611d0d6145c1565b7f5db9ee0a495bf2e6ff9c91a7834c1ba4fdd244a5e8aa4e537bd38aeae4b073aa33604051808273ffffffffffffffffffffffffffffffffffffffff16815260200191505060405180910390a1565b6000600160009054906101000a900460ff16905090565b611d7b6145b9565b73ffffffffffffffffffffffffffffffffffffffff1660018054906101000a900473ffffffffffffffffffffffffffffffffffffffff1673ffffffffffffffffffffffffffffffffffffffff1614611e3b576040517f08c379a00000000000000000000000000000000000000000000000000000000081526004018080602001828103825260208152602001807f4f776e61626c653a2063616c6c6572206973206e6f7420746865206f776e657281525060200191505060405180910390fd5b60005b81518160ff161015611e9657600e828260ff1681518110611e5b57fe5b602002602001015190806001815401808255809150506001900390600052602060002001600090919091909150558080600101915050611e3e565b5050565b611ea26145b9565b73ffffffffffffffffffffffffffffffffffffffff1660018054906101000a900473ffffffffffffffffffffffffffffffffffffffff1673ffffffffffffffffffffffffffffffffffffffff1614611f62576040517f08c379a00000000000000000000000000000000000000000000000000000000081526004018080602001828103825260208152602001807f4f776e61626c653a2063616c6c6572206973206e6f7420746865206f776e657281525060200191505060405180910390fd5b600073ffffffffffffffffffffffffffffffffffffffff1660018054906101000a900473ffffffffffffffffffffffffffffffffffffffff1673ffffffffffffffffffffffffffffffffffffffff167f8be0079c531659141344cd1fd0a4f28419497f9722a3daafe3b4186f6b6457e060405160405180910390a360006001806101000a81548173ffffffffffffffffffffffffffffffffffffffff021916908373ffffffffffffffffffffffffffffffffffffffff160217905550565b6120286145b9565b73ffffffffffffffffffffffffffffffffffffffff1660018054906101000a900473ffffffffffffffffffffffffffffffffffffffff1673ffffffffffffffffffffffffffffffffffffffff16146120e8576040517f08c379a00000000000000000000000000000000000000000000000000000000081526004018080602001828103825260208152602001807f4f776e61626c653a2063616c6c6572206973206e6f7420746865206f776e657281525060200191505060405180910390fd5b60004790503373ffffffffffffffffffffffffffffffffffffffff166108fc829081150290604051600060405180830381858888f19350505050158015612133573d6000803e3d6000fd5b5050565b60008183106121465781612148565b825b905092915050565b60105481565b600061216442600f54612137565b905090565b6121716145b9565b73ffffffffffffffffffffffffffffffffffffffff1660018054906101000a900473ffffffffffffffffffffffffffffffffffffffff1673ffffffffffffffffffffffffffffffffffffffff1614612231576040517f08c379a00000000000000000000000000000000000000000000000000000000081526004018080602001828103825260208152602001807f4f776e61626c653a2063616c6c6572206973206e6f7420746865206f776e657281525060200191505060405180910390fd5b600160009054906101000a900460ff16156122b4576040517f08c379a00000000000000000000000000000000000000000000000000000000081526004018080602001828103825260108152602001807f5061757361626c653a207061757365640000000000000000000000000000000081525060200191505060405180910390fd5b6122bc6146b4565b7f62e78cea01bee320cd4e420270b5ea74000d11b0c9f74754ebdbfc544b05a25833604051808273ffffffffffffffffffffffffffffffffffffffff16815260200191505060405180910390a1565b6123136145b9565b73ffffffffffffffffffffffffffffffffffffffff1660018054906101000a900473ffffffffffffffffffffffffffffffffffffffff1673ffffffffffffffffffffffffffffffffffffffff16146123d3576040517f08c379a00000000000000000000000000000000000000000000000000000000081526004018080602001828103825260208152602001807f4f776e61626c653a2063616c6c6572206973206e6f7420746865206f776e657281525060200191505060405180910390fd5b8173ffffffffffffffffffffffffffffffffffffffff1663a9059cbb3073ffffffffffffffffffffffffffffffffffffffff16638da5cb5b6040518163ffffffff1660e01b815260040160206040518083038186803b15801561243557600080fd5b505afa158015612449573d6000803e3d6000fd5b505050506040513d602081101561245f57600080fd5b8101908080519060200190929190505050836040518363ffffffff1660e01b8152600401808373ffffffffffffffffffffffffffffffffffffffff16815260200182815260200192505050602060405180830381600087803b1580156124c457600080fd5b505af11580156124d8573d6000803e3d6000fd5b505050506040513d60208110156124ee57600080fd5b8101908080519060200190929190505050507f8c1256b8896378cd5044f80c202f9772b9d77dc85c8a6eb51967210b09bfaa288282604051808373ffffffffffffffffffffffffffffffffffffffff1681526020018281526020019250505060405180910390a15050565b60146020528060005260406000206000915090505481565b600060018054906101000a900473ffffffffffffffffffffffffffffffffffffffff16905090565b6125a16145b9565b73ffffffffffffffffffffffffffffffffffffffff1660018054906101000a900473ffffffffffffffffffffffffffffffffffffffff1673ffffffffffffffffffffffffffffffffffffffff1614612661576040517f08c379a00000000000000000000000000000000000000000000000000000000081526004018080602001828103825260208152602001807f4f776e61626c653a2063616c6c6572206973206e6f7420746865206f776e657281525060200191505060405180910390fd5b6000808351905060018314156126d557600091505b808260ff1610156126d057600160086000868560ff168151811061269657fe5b6020026020010151815260200190815260200160002060006101000a81548160ff0219169083151502179055508180600101925050612676565b61281f565b600283141561274257600091505b808260ff16101561273d57600160096000868560ff168151811061270357fe5b6020026020010151815260200190815260200160002060006101000a81548160ff02191690831515021790555081806001019250506126e3565b61281e565b60038314156127af57600091505b808260ff1610156127aa576001600a6000868560ff168151811061277057fe5b6020026020010151815260200190815260200160002060006101000a81548160ff0219169083151502179055508180600101925050612750565b61281d565b6040517f08c379a00000000000000000000000000000000000000000000000000000000081526004018080602001828103825260098152602001807f77726f6e6720617065000000000000000000000000000000000000000000000081525060200191505060405180910390fd5b5b5b50505050565b600160009054906101000a900460ff16156128a8576040517f08c379a00000000000000000000000000000000000000000000000000000000081526004018080602001828103825260108152602001807f5061757361626c653a207061757365640000000000000000000000000000000081525060200191505060405180910390fd5b336128b16133a9565b6013819055506128bf612156565b601281905550600073ffffffffffffffffffffffffffffffffffffffff168173ffffffffffffffffffffffffffffffffffffffff161461298c5761290281610d7f565b601560008373ffffffffffffffffffffffffffffffffffffffff1673ffffffffffffffffffffffffffffffffffffffff16815260200190815260200160002081905550601354601460008373ffffffffffffffffffffffffffffffffffffffff1673ffffffffffffffffffffffffffffffffffffffff168152602001908152602001600020819055505b600115156008600084815260200190815260200160002060009054906101000a900460ff1615151415612afd57600180600560003373ffffffffffffffffffffffffffffffffffffffff1673ffffffffffffffffffffffffffffffffffffffff16815260200190815260200160002060009054906101000a900460ff160160ff161115612a81576040517f08c379a00000000000000000000000000000000000000000000000000000000081526004018080602001828103825260128152602001807f31206164756c742066656d616c65206d6178000000000000000000000000000081525060200191505060405180910390fd5b600560003373ffffffffffffffffffffffffffffffffffffffff1673ffffffffffffffffffffffffffffffffffffffff168152602001908152602001600020600081819054906101000a900460ff168092919060010191906101000a81548160ff021916908360ff16021790555050612af86147a7565b612e49565b600115156009600084815260200190815260200160002060009054906101000a900460ff1615151415612c6f5760026001600660003373ffffffffffffffffffffffffffffffffffffffff1673ffffffffffffffffffffffffffffffffffffffff16815260200190815260200160002060009054906101000a900460ff160160ff161115612bf3576040517f08c379a00000000000000000000000000000000000000000000000000000000081526004018080602001828103825260108152602001807f32206164756c74206d616c65206d61780000000000000000000000000000000081525060200191505060405180910390fd5b600660003373ffffffffffffffffffffffffffffffffffffffff1673ffffffffffffffffffffffffffffffffffffffff168152602001908152602001600020600081819054906101000a900460ff168092919060010191906101000a81548160ff021916908360ff16021790555050612c6a6147a7565b612e48565b60011515600a600084815260200190815260200160002060009054906101000a900460ff1615151415612dd95760026001600760003373ffffffffffffffffffffffffffffffffffffffff1673ffffffffffffffffffffffffffffffffffffffff16815260200190815260200160002060009054906101000a900460ff160160ff161115612d65576040517f08c379a000000000000000000000000000000000000000000000000000000000815260040180806020018281038252600c8152602001807f3220626162696573206d6178000000000000000000000000000000000000000081525060200191505060405180910390fd5b600760003373ffffffffffffffffffffffffffffffffffffffff1673ffffffffffffffffffffffffffffffffffffffff168152602001908152602001600020600081819054906101000a900460ff168092919060010191906101000a81548160ff021916908360ff16021790555050612e47565b6040517f08c379a00000000000000000000000000000000000000000000000000000000081526004018080602001828103825260098152602001807f77726f6e6720617065000000000000000000000000000000000000000000000081525060200191505060405180910390fd5b5b5b612e516141e6565b15612ea357670de0b6b3a7640000601760003373ffffffffffffffffffffffffffffffffffffffff1673ffffffffffffffffffffffffffffffffffffffff168152602001908152602001600020819055505b601660008154809291906001019190505550600460003373ffffffffffffffffffffffffffffffffffffffff1673ffffffffffffffffffffffffffffffffffffffff168152602001908152602001600020829080600181540180825580915050600190039060005260206000200160009091909190915055600260009054906101000a900473ffffffffffffffffffffffffffffffffffffffff1673ffffffffffffffffffffffffffffffffffffffff1663f242432a33308560016040518563ffffffff1660e01b8152600401808573ffffffffffffffffffffffffffffffffffffffff1681526020018473ffffffffffffffffffffffffffffffffffffffff16815260200183815260200182815260200180602001828103825260038152602001807f307830000000000000000000000000000000000000000000000000000000000081525060200195505050505050600060405180830381600087803b15801561300e57600080fd5b505af1158015613022573d6000803e3d6000fd5b505050503373ffffffffffffffffffffffffffffffffffffffff167f9e71bc8eea02a63969f509818f2dafb9254532904319f9dbda79b67bd34a5f3d836040518082815260200191505060405180910390a25050565b60125481565b6130866145b9565b73ffffffffffffffffffffffffffffffffffffffff1660018054906101000a900473ffffffffffffffffffffffffffffffffffffffff1673ffffffffffffffffffffffffffffffffffffffff1614613146576040517f08c379a00000000000000000000000000000000000000000000000000000000081526004018080602001828103825260208152602001807f4f776e61626c653a2063616c6c6572206973206e6f7420746865206f776e657281525060200191505060405180910390fd5b80518251146131bd576040517f08c379a00000000000000000000000000000000000000000000000000000000081526004018080602001828103825260078152602001807f216c656e6774680000000000000000000000000000000000000000000000000081525060200191505060405180910390fd5b60005b82518160ff16101561323f57600b6000848360ff16815181106131df57fe5b60200260200101518152602001908152602001600020828260ff168151811061320457fe5b6020026020010151908060018154018082558091505060019003906000526020600020016000909190919091505580806001019150506131c0565b505050565b61324c6145b9565b73ffffffffffffffffffffffffffffffffffffffff1660018054906101000a900473ffffffffffffffffffffffffffffffffffffffff1673ffffffffffffffffffffffffffffffffffffffff161461330c576040517f08c379a00000000000000000000000000000000000000000000000000000000081526004018080602001828103825260208152602001807f4f776e61626c653a2063616c6c6572206973206e6f7420746865206f776e657281525060200191505060405180910390fd5b600f544211613366576040517f08c379a0000000000000000000000000000000000000000000000000000000008152600401808060200182810382526058815260200180614bf36058913960600191505060405180910390fd5b806011819055507ffb46ca5a5e06d4540d6387b930a7c978bce0db5f449ec6b3f5d07c6e1d44f2d36011546040518082815260200191505060405180910390a150565b60008060165414156133bf57601354905061342d565b61342a613419600461340b6016546133fd6010546133ef6012546133e1612156565b613f7290919063ffffffff16565b613fbc90919063ffffffff16565b61404290919063ffffffff16565b613fbc90919063ffffffff16565b60135461408c90919063ffffffff16565b90505b90565b565b60135481565b600080600460003373ffffffffffffffffffffffffffffffffffffffff1673ffffffffffffffffffffffffffffffffffffffff168152602001908152602001600020805490509050600091505b808210156134f8576134eb600460003373ffffffffffffffffffffffffffffffffffffffff1673ffffffffffffffffffffffffffffffffffffffff1681526020019081526020016000206000815481106134db57fe5b9060005260206000200154610f1f565b8180600101925050613485565b613500611922565b5050565b600f5481565b600060026000541415613585576040517f08c379a000000000000000000000000000000000000000000000000000000000815260040180806020018281038252601f8152602001807f5265656e7472616e637947756172643a207265656e7472616e742063616c6c0081525060200191505060405180910390fd5b6002600081905550600160009054906101000a900460ff1615613610576040517f08c379a00000000000000000000000000000000000000000000000000000000081526004018080602001828103825260108152602001807f5061757361626c653a207061757365640000000000000000000000000000000081525060200191505060405180910390fd5b6001600560003373ffffffffffffffffffffffffffffffffffffffff1673ffffffffffffffffffffffffffffffffffffffff16815260200190815260200160002060009054906101000a900460ff1660ff1610156136d6576040517f08c379a00000000000000000000000000000000000000000000000000000000081526004018080602001828103825260118152602001807f66656d616c65206e6f74207374616b656400000000000000000000000000000081525060200191505060405180910390fd5b600080600090505b600460003373ffffffffffffffffffffffffffffffffffffffff1673ffffffffffffffffffffffffffffffffffffffff168152602001908152602001600020805490508160ff161015613817576001151560086000600460003373ffffffffffffffffffffffffffffffffffffffff1673ffffffffffffffffffffffffffffffffffffffff1681526020019081526020016000208460ff168154811061378057fe5b9060005260206000200154815260200190815260200160002060009054906101000a900460ff161515141561380a57600460003373ffffffffffffffffffffffffffffffffffffffff1673ffffffffffffffffffffffffffffffffffffffff1681526020019081526020016000208160ff16815481106137fc57fe5b906000526020600020015491505b80806001019150506136de565b5060026001600c600084815260200190815260200160002060009054906101000a900460ff160160ff1611156138b5576040517f08c379a000000000000000000000000000000000000000000000000000000000815260040180806020018281038252600e8152602001807f54776f20626162696573206d617800000000000000000000000000000000000081525060200191505060405180910390fd5b6138bd6148a4565b61392f576040517f08c379a00000000000000000000000000000000000000000000000000000000081526004018080602001828103825260098152602001807f216272656564696e67000000000000000000000000000000000000000000000081525060200191505060405180910390fd5b6139376147a7565b6000600c600083815260200190815260200160002060009054906101000a900460ff1660ff161415613b3557600260009054906101000a900473ffffffffffffffffffffffffffffffffffffffff1673ffffffffffffffffffffffffffffffffffffffff1663f242432a600360009054906101000a900473ffffffffffffffffffffffffffffffffffffffff1633600b60008681526020019081526020016000206000815481106139e457fe5b906000526020600020015460016040518563ffffffff1660e01b8152600401808573ffffffffffffffffffffffffffffffffffffffff1681526020018473ffffffffffffffffffffffffffffffffffffffff16815260200183815260200182815260200180602001828103825260038152602001807f307830000000000000000000000000000000000000000000000000000000000081525060200195505050505050600060405180830381600087803b158015613aa157600080fd5b505af1158015613ab5573d6000803e3d6000fd5b505050503373ffffffffffffffffffffffffffffffffffffffff167fd8138f8a3f377c5259ca548e70e4c2de94f129f5a11036a15b69513cba2b426a600b6000848152602001908152602001600020600081548110613b1057fe5b90600052602060002001546040518082815260200191505060405180910390a2613d03565b600260009054906101000a900473ffffffffffffffffffffffffffffffffffffffff1673ffffffffffffffffffffffffffffffffffffffff1663f242432a600360009054906101000a900473ffffffffffffffffffffffffffffffffffffffff1633600b6000868152602001908152602001600020600181548110613bb657fe5b906000526020600020015460016040518563ffffffff1660e01b8152600401808573ffffffffffffffffffffffffffffffffffffffff1681526020018473ffffffffffffffffffffffffffffffffffffffff16815260200183815260200182815260200180602001828103825260038152602001807f307830000000000000000000000000000000000000000000000000000000000081525060200195505050505050600060405180830381600087803b158015613c7357600080fd5b505af1158015613c87573d6000803e3d6000fd5b505050503373ffffffffffffffffffffffffffffffffffffffff167fd8138f8a3f377c5259ca548e70e4c2de94f129f5a11036a15b69513cba2b426a600b6000848152602001908152602001600020600181548110613ce257fe5b90600052602060002001546040518082815260200191505060405180910390a25b600c6000828152602001908152602001600020600081819054906101000a900460ff168092919060010191906101000a81548160ff021916908360ff1602179055505050600160008190555090565b600063f23a6e6160e01b905095945050505050565b613d6f6145b9565b73ffffffffffffffffffffffffffffffffffffffff1660018054906101000a900473ffffffffffffffffffffffffffffffffffffffff1673ffffffffffffffffffffffffffffffffffffffff1614613e2f576040517f08c379a00000000000000000000000000000000000000000000000000000000081526004018080602001828103825260208152602001807f4f776e61626c653a2063616c6c6572206973206e6f7420746865206f776e657281525060200191505060405180910390fd5b600073ffffffffffffffffffffffffffffffffffffffff168173ffffffffffffffffffffffffffffffffffffffff161415613eb5576040517f08c379a0000000000000000000000000000000000000000000000000000000008152600401808060200182810382526026815260200180614c4b6026913960400191505060405180910390fd5b8073ffffffffffffffffffffffffffffffffffffffff1660018054906101000a900473ffffffffffffffffffffffffffffffffffffffff1673ffffffffffffffffffffffffffffffffffffffff167f8be0079c531659141344cd1fd0a4f28419497f9722a3daafe3b4186f6b6457e060405160405180910390a3806001806101000a81548173ffffffffffffffffffffffffffffffffffffffff021916908373ffffffffffffffffffffffffffffffffffffffff16021790555050565b6000613fb483836040518060400160405280601e81526020017f536166654d6174683a207375627472616374696f6e206f766572666c6f77000081525061494a565b905092915050565b600080831415613fcf576000905061403c565b6000828402905082848281613fe057fe5b0414614037576040517f08c379a0000000000000000000000000000000000000000000000000000000008152600401808060200182810382526021815260200180614c716021913960400191505060405180910390fd5b809150505b92915050565b600061408483836040518060400160405280601a81526020017f536166654d6174683a206469766973696f6e206279207a65726f000000000000815250614a0a565b905092915050565b60008082840190508381101561410a576040517f08c379a000000000000000000000000000000000000000000000000000000000815260040180806020018281038252601b8152602001807f536166654d6174683a206164646974696f6e206f766572666c6f77000000000081525060200191505060405180910390fd5b8091505092915050565b600080600090505b600460003373ffffffffffffffffffffffffffffffffffffffff1673ffffffffffffffffffffffffffffffffffffffff168152602001908152602001600020805490508160ff1610156141df5782600460003373ffffffffffffffffffffffffffffffffffffffff1673ffffffffffffffffffffffffffffffffffffffff1681526020019081526020016000208260ff16815481106141b757fe5b906000526020600020015414156141d25760019150506141e1565b808060010191505061411c565b505b919050565b60006002600760003373ffffffffffffffffffffffffffffffffffffffff1673ffffffffffffffffffffffffffffffffffffffff16815260200190815260200160002060009054906101000a900460ff1660ff1614801561429657506001600560003373ffffffffffffffffffffffffffffffffffffffff1673ffffffffffffffffffffffffffffffffffffffff16815260200190815260200160002060009054906101000a900460ff1660ff16145b80156142f157506001600660003373ffffffffffffffffffffffffffffffffffffffff1673ffffffffffffffffffffffffffffffffffffffff16815260200190815260200160002060009054906101000a900460ff1660ff16145b156142ff57600190506143cb565b6002600760003373ffffffffffffffffffffffffffffffffffffffff1673ffffffffffffffffffffffffffffffffffffffff16815260200190815260200160002060009054906101000a900460ff1660ff161480156143ad57506002600660003373ffffffffffffffffffffffffffffffffffffffff1673ffffffffffffffffffffffffffffffffffffffff16815260200190815260200160002060009054906101000a900460ff1660ff16145b156143ca576143bb33614ad0565b156143c957600190506143cb565b5b5b90565b6060600460003373ffffffffffffffffffffffffffffffffffffffff1673ffffffffffffffffffffffffffffffffffffffff16815260200190815260200160002080548060200260200160405190810160405280929190818152602001828054801561445957602002820191906000526020600020905b815481526020019060010190808311614445575b5050505050905060005b81518160ff1610156145b35782828260ff168151811061447f57fe5b602002602001015114156145a657600460003373ffffffffffffffffffffffffffffffffffffffff1673ffffffffffffffffffffffffffffffffffffffff1681526020019081526020016000206001835103815481106144db57fe5b9060005260206000200154600460003373ffffffffffffffffffffffffffffffffffffffff1673ffffffffffffffffffffffffffffffffffffffff1681526020019081526020016000208260ff168154811061453357fe5b9060005260206000200181905550600460003373ffffffffffffffffffffffffffffffffffffffff1673ffffffffffffffffffffffffffffffffffffffff16815260200190815260200160002080548061458957fe5b6001900381819060005260206000200160009055905550506145b6565b8080600101915050614463565b50505b50565b600033905090565b600160009054906101000a900460ff16614643576040517f08c379a00000000000000000000000000000000000000000000000000000000081526004018080602001828103825260148152602001807f5061757361626c653a206e6f742070617573656400000000000000000000000081525060200191505060405180910390fd5b6000600160006101000a81548160ff0219169083151502179055507f5db9ee0a495bf2e6ff9c91a7834c1ba4fdd244a5e8aa4e537bd38aeae4b073aa6146876145b9565b604051808273ffffffffffffffffffffffffffffffffffffffff16815260200191505060405180910390a1565b600160009054906101000a900460ff1615614737576040517f08c379a00000000000000000000000000000000000000000000000000000000081526004018080602001828103825260108152602001807f5061757361626c653a207061757365640000000000000000000000000000000081525060200191505060405180910390fd5b60018060006101000a81548160ff0219169083151502179055507f62e78cea01bee320cd4e420270b5ea74000d11b0c9f74754ebdbfc544b05a25861477a6145b9565b604051808273ffffffffffffffffffffffffffffffffffffffff16815260200191505060405180910390a1565b6001600560003373ffffffffffffffffffffffffffffffffffffffff1673ffffffffffffffffffffffffffffffffffffffff16815260200190815260200160002060009054906101000a900460ff1660ff1614801561485557506001600660003373ffffffffffffffffffffffffffffffffffffffff1673ffffffffffffffffffffffffffffffffffffffff16815260200190815260200160002060009054906101000a900460ff1660ff16145b156148a257603c4201600d60003373ffffffffffffffffffffffffffffffffffffffff1673ffffffffffffffffffffffffffffffffffffffff168152602001908152602001600020819055505b565b600080600d60003373ffffffffffffffffffffffffffffffffffffffff1673ffffffffffffffffffffffffffffffffffffffff1681526020019081526020016000205414156148f65760009050614947565b600d60003373ffffffffffffffffffffffffffffffffffffffff1673ffffffffffffffffffffffffffffffffffffffff168152602001908152602001600020544211156149465760019050614947565b5b90565b60008383111582906149f7576040517f08c379a00000000000000000000000000000000000000000000000000000000081526004018080602001828103825283818151815260200191508051906020019080838360005b838110156149bc5780820151818401526020810190506149a1565b50505050905090810190601f1680156149e95780820380516001836020036101000a031916815260200191505b509250505060405180910390fd5b5060008385039050809150509392505050565b60008083118290614ab6576040517f08c379a00000000000000000000000000000000000000000000000000000000081526004018080602001828103825283818151815260200191508051906020019080838360005b83811015614a7b578082015181840152602081019050614a60565b50505050905090810190601f168015614aa85780820380516001836020036101000a031916815260200191505b509250505060405180910390fd5b506000838581614ac257fe5b049050809150509392505050565b600080600090505b600e805490508160ff161015614beb576001600260009054906101000a900473ffffffffffffffffffffffffffffffffffffffff1673ffffffffffffffffffffffffffffffffffffffff1662fdd58e85600e8560ff1681548110614b3857fe5b90600052602060002001546040518363ffffffff1660e01b8152600401808373ffffffffffffffffffffffffffffffffffffffff1681526020018281526020019250505060206040518083038186803b158015614b9457600080fd5b505afa158015614ba8573d6000803e3d6000fd5b505050506040513d6020811015614bbe57600080fd5b810190808051906020019092919050505010614bde576001915050614bed565b8080600101915050614ad8565b505b91905056fe50726576696f7573207265776172647320706572696f64206d75737420626520636f6d706c657465206265666f7265206368616e67696e6720746865206475726174696f6e20666f7220746865206e657720706572696f644f776e61626c653a206e6577206f776e657220697320746865207a65726f2061646472657373536166654d6174683a206d756c7469706c69636174696f6e206f766572666c6f77a2646970667358221220cd46cdeef68e6449c375c335f9f96527392eb7ed5645d8c29890e296959b7b7a64736f6c634300060c0033",
  "immutableReferences": {},
  "source": "// SPDX-License-Identifier: MIT\n\npragma solidity ^0.6.2;\n\nlibrary SafeMath {\n    /**\n     * @dev Returns the addition of two unsigned integers, reverting on\n     * overflow.\n     *\n     * Counterpart to Solidity's `+` operator.\n     *\n     * Requirements:\n     *\n     * - Addition cannot overflow.\n     */\n    function add(uint256 a, uint256 b) internal pure returns (uint256) {\n        uint256 c = a + b;\n        require(c >= a, \"SafeMath: addition overflow\");\n\n        return c;\n    }\n\n    /**\n     * @dev Returns the subtraction of two unsigned integers, reverting on\n     * overflow (when the result is negative).\n     *\n     * Counterpart to Solidity's `-` operator.\n     *\n     * Requirements:\n     *\n     * - Subtraction cannot overflow.\n     */\n    function sub(uint256 a, uint256 b) internal pure returns (uint256) {\n        return sub(a, b, \"SafeMath: subtraction overflow\");\n    }\n\n    /**\n     * @dev Returns the subtraction of two unsigned integers, reverting with custom message on\n     * overflow (when the result is negative).\n     *\n     * Counterpart to Solidity's `-` operator.\n     *\n     * Requirements:\n     *\n     * - Subtraction cannot overflow.\n     */\n    function sub(uint256 a, uint256 b, string memory errorMessage) internal pure returns (uint256) {\n        require(b <= a, errorMessage);\n        uint256 c = a - b;\n\n        return c;\n    }\n\n    /**\n     * @dev Returns the multiplication of two unsigned integers, reverting on\n     * overflow.\n     *\n     * Counterpart to Solidity's `*` operator.\n     *\n     * Requirements:\n     *\n     * - Multiplication cannot overflow.\n     */\n    function mul(uint256 a, uint256 b) internal pure returns (uint256) {\n        // Gas optimization: this is cheaper than requiring 'a' not being zero, but the\n        // benefit is lost if 'b' is also tested.\n        // See: https://github.com/OpenZeppelin/openzeppelin-contracts/pull/522\n        if (a == 0) {\n            return 0;\n        }\n\n        uint256 c = a * b;\n        require(c / a == b, \"SafeMath: multiplication overflow\");\n\n        return c;\n    }\n\n    /**\n     * @dev Returns the integer division of two unsigned integers. Reverts on\n     * division by zero. The result is rounded towards zero.\n     *\n     * Counterpart to Solidity's `/` operator. Note: this function uses a\n     * `revert` opcode (which leaves remaining gas untouched) while Solidity\n     * uses an invalid opcode to revert (consuming all remaining gas).\n     *\n     * Requirements:\n     *\n     * - The divisor cannot be zero.\n     */\n    function div(uint256 a, uint256 b) internal pure returns (uint256) {\n        return div(a, b, \"SafeMath: division by zero\");\n    }\n\n    /**\n     * @dev Returns the integer division of two unsigned integers. Reverts with custom message on\n     * division by zero. The result is rounded towards zero.\n     *\n     * Counterpart to Solidity's `/` operator. Note: this function uses a\n     * `revert` opcode (which leaves remaining gas untouched) while Solidity\n     * uses an invalid opcode to revert (consuming all remaining gas).\n     *\n     * Requirements:\n     *\n     * - The divisor cannot be zero.\n     */\n    function div(uint256 a, uint256 b, string memory errorMessage) internal pure returns (uint256) {\n        require(b > 0, errorMessage);\n        uint256 c = a / b;\n        // assert(a == b * c + a % b); // There is no case in which this doesn't hold\n\n        return c;\n    }\n\n    /**\n     * @dev Returns the remainder of dividing two unsigned integers. (unsigned integer modulo),\n     * Reverts when dividing by zero.\n     *\n     * Counterpart to Solidity's `%` operator. This function uses a `revert`\n     * opcode (which leaves remaining gas untouched) while Solidity uses an\n     * invalid opcode to revert (consuming all remaining gas).\n     *\n     * Requirements:\n     *\n     * - The divisor cannot be zero.\n     */\n    function mod(uint256 a, uint256 b) internal pure returns (uint256) {\n        return mod(a, b, \"SafeMath: modulo by zero\");\n    }\n\n    /**\n     * @dev Returns the remainder of dividing two unsigned integers. (unsigned integer modulo),\n     * Reverts with custom message when dividing by zero.\n     *\n     * Counterpart to Solidity's `%` operator. This function uses a `revert`\n     * opcode (which leaves remaining gas untouched) while Solidity uses an\n     * invalid opcode to revert (consuming all remaining gas).\n     *\n     * Requirements:\n     *\n     * - The divisor cannot be zero.\n     */\n    function mod(uint256 a, uint256 b, string memory errorMessage) internal pure returns (uint256) {\n        require(b != 0, errorMessage);\n        return a % b;\n    }\n}\n\n\nabstract contract Context {\n    function _msgSender() internal view virtual returns (address payable) {\n        return msg.sender;\n    }\n\n    function _msgData() internal view virtual returns (bytes memory) {\n        this; // silence state mutability warning without generating bytecode - see https://github.com/ethereum/solidity/issues/2691\n        return msg.data;\n    }\n}\n\n\ncontract Pausable is Context {\n    /**\n     * @dev Emitted when the pause is triggered by `account`.\n     */\n    event Paused(address account);\n\n    /**\n     * @dev Emitted when the pause is lifted by `account`.\n     */\n    event Unpaused(address account);\n\n    bool private _paused;\n\n    /**\n     * @dev Initializes the contract in unpaused state.\n     */\n    constructor () internal {\n        _paused = false;\n    }\n\n    /**\n     * @dev Returns true if the contract is paused, and false otherwise.\n     */\n    function paused() public view returns (bool) {\n        return _paused;\n    }\n\n    /**\n     * @dev Modifier to make a function callable only when the contract is not paused.\n     *\n     * Requirements:\n     *\n     * - The contract must not be paused.\n     */\n    modifier whenNotPaused() {\n        require(!_paused, \"Pausable: paused\");\n        _;\n    }\n\n    /**\n     * @dev Modifier to make a function callable only when the contract is paused.\n     *\n     * Requirements:\n     *\n     * - The contract must be paused.\n     */\n    modifier whenPaused() {\n        require(_paused, \"Pausable: not paused\");\n        _;\n    }\n\n    /**\n     * @dev Triggers stopped state.\n     *\n     * Requirements:\n     *\n     * - The contract must not be paused.\n     */\n    function _pause() internal virtual whenNotPaused {\n        _paused = true;\n        emit Paused(_msgSender());\n    }\n\n    /**\n     * @dev Returns to normal state.\n     *\n     * Requirements:\n     *\n     * - The contract must be paused.\n     */\n    function _unpause() internal virtual whenPaused {\n        _paused = false;\n        emit Unpaused(_msgSender());\n    }\n}\n\n\ncontract Ownable is Context {\n    address private _owner;\n\n    event OwnershipTransferred(address indexed previousOwner, address indexed newOwner);\n\n    /**\n     * @dev Initializes the contract setting the deployer as the initial owner.\n     */\n    constructor () internal {\n        address msgSender = _msgSender();\n        _owner = msgSender;\n        emit OwnershipTransferred(address(0), msgSender);\n    }\n\n    /**\n     * @dev Returns the address of the current owner.\n     */\n    function owner() public view returns (address) {\n        return _owner;\n    }\n\n    /**\n     * @dev Throws if called by any account other than the owner.\n     */\n    modifier onlyOwner() {\n        require(_owner == _msgSender(), \"Ownable: caller is not the owner\");\n        _;\n    }\n\n    /**\n     * @dev Leaves the contract without owner. It will not be possible to call\n     * `onlyOwner` functions anymore. Can only be called by the current owner.\n     *\n     * NOTE: Renouncing ownership will leave the contract without an owner,\n     * thereby removing any functionality that is only available to the owner.\n     */\n    function renounceOwnership() public virtual onlyOwner {\n        emit OwnershipTransferred(_owner, address(0));\n        _owner = address(0);\n    }\n\n    /**\n     * @dev Transfers ownership of the contract to a new account (`newOwner`).\n     * Can only be called by the current owner.\n     */\n    function transferOwnership(address newOwner) public virtual onlyOwner {\n        require(newOwner != address(0), \"Ownable: new owner is the zero address\");\n        emit OwnershipTransferred(_owner, newOwner);\n        _owner = newOwner;\n    }\n}\n\n\ncontract ReentrancyGuard {\n    // Booleans are more expensive than uint256 or any type that takes up a full\n    // word because each write operation emits an extra SLOAD to first read the\n    // slot's contents, replace the bits taken up by the boolean, and then write\n    // back. This is the compiler's defense against contract upgrades and\n    // pointer aliasing, and it cannot be disabled.\n\n    // The values being non-zero value makes deployment a bit more expensive,\n    // but in exchange the refund on every call to nonReentrant will be lower in\n    // amount. Since refunds are capped to a percentage of the total\n    // transaction's gas, it is best to keep them low in cases like this one, to\n    // increase the likelihood of the full refund coming into effect.\n    uint256 private constant _NOT_ENTERED = 1;\n    uint256 private constant _ENTERED = 2;\n\n    uint256 private _status;\n\n    constructor () internal {\n        _status = _NOT_ENTERED;\n    }\n\n    /**\n     * @dev Prevents a contract from calling itself, directly or indirectly.\n     * Calling a `nonReentrant` function from another `nonReentrant`\n     * function is not supported. It is possible to prevent this from happening\n     * by making the `nonReentrant` function external, and make it call a\n     * `private` function that does the actual work.\n     */\n    modifier nonReentrant() {\n        // On the first call to nonReentrant, _notEntered will be true\n        require(_status != _ENTERED, \"ReentrancyGuard: reentrant call\");\n\n        // Any calls to nonReentrant after this point will fail\n        _status = _ENTERED;\n\n        _;\n\n        // By storing the original value once again, a refund is triggered (see\n        // https://eips.ethereum.org/EIPS/eip-2200)\n        _status = _NOT_ENTERED;\n    }\n}\n\n\n/**\n * @title ERC721 token receiver interface\n * @dev Interface for any contract that wants to support safeTransfers\n * from ERC721 asset contracts.\n */\ninterface IERC721Receiver {\n    /**\n     * @dev Whenever an {IERC721} `tokenId` token is transferred to this contract via {IERC721-safeTransferFrom}\n     * by `operator` from `from`, this function is called.\n     *\n     * It must return its Solidity selector to confirm the token transfer.\n     * If any other value is returned or the interface is not implemented by the recipient, the transfer will be reverted.\n     *\n     * The selector can be obtained in Solidity with `IERC721.onERC721Received.selector`.\n     */\n    function onERC721Received(address operator, address from, uint256 tokenId, bytes calldata data) external returns (bytes4);\n}\n\n\npragma solidity ^0.6.0;\n\ninterface IERC20 {\n    function transfer(address recipient, uint256 amount) external returns (bool);\n}\n\ninterface IERC1155 {\n    function balanceOf(address account, uint256 id) external view returns (uint256);\n    function safeTransferFrom(address from, address to, uint256 id, uint256 amount, bytes memory data) external;\n}\n\ncontract StakingPool is ReentrancyGuard, Pausable, Ownable {\n    using SafeMath for uint256;\n\n    /* ========== STATE VARIABLES ========== */\n\n    IERC1155 private apeToken;\n    address private apeOwner;\n    mapping(address => uint256[]) private staked;\n    mapping(address => uint8) private stakedFemales;\n    mapping(address => uint8) private stakedMales;\n    mapping(address => uint8) private stakedBabies;\n    mapping(uint256 => bool) private femaleId;\n    mapping(uint256 => bool) private maleId;\n    mapping(uint256 => bool) private babyId;\n    mapping(uint256 => uint256[]) private babyOf;\n    mapping(uint256 => uint8) private birth;\n    mapping(address => uint256) private breedingEnd;\n    uint256[] private certificates;\n\n    uint256 public periodFinish = 0;\n    uint256 public rewardRate = 1;\n    uint256 public rewardsDuration = 1 minutes;\n    uint256 public lastUpdateTime;\n    uint256 public rewardPerTokenStored;\n\n    mapping(address => uint256) public userRewardPerTokenPaid;\n    mapping(address => uint256) public rewards;\n\n    uint256 private _totalSupply;\n    mapping(address => uint256) private _balances;\n\n    /* ========== CONSTRUCTOR ========== */\n\n    constructor(address _apeToken, address _apeOwner) public {\n        apeToken = IERC1155(_apeToken);\n        apeOwner = _apeOwner;\n    }\n\n    /* ========== STAKING FUNCTIONS ========== */\n\n    function deposit() external payable {\n        // todo remove this function before deployment\n    }\n\n    function lastTimeRewardApplicable() public view returns (uint256) {\n        return min(block.timestamp, periodFinish);\n    }\n\n    function rewardPerToken() public view returns (uint256) {\n        if (_totalSupply == 0) {\n            return rewardPerTokenStored;\n        }\n        return\n            rewardPerTokenStored.add(\n                lastTimeRewardApplicable()\n                    .sub(lastUpdateTime)\n                    .mul(rewardRate)\n                    .div(_totalSupply)\n                    .mul(4)\n            );\n    }\n\n    function earned(address account) public view returns (uint256) {\n        return\n            _balances[account].mul(rewardPerToken().sub(userRewardPerTokenPaid[account])).div(1e18).add(rewards[account]);\n    }\n\n    function getRewardForDuration() external view returns (uint256) {\n        return rewardRate.mul(rewardsDuration);\n    }\n\n    function min(uint256 a, uint256 b) public pure returns (uint256) {\n        return a < b ? a : b;\n    }\n\n    function getReward() public nonReentrant updateReward(msg.sender) {\n        uint256 reward = rewards[msg.sender];\n        if (reward > 0) {\n            rewards[msg.sender] = 0;\n            msg.sender.transfer(reward);\n            emit RewardPaid(msg.sender, reward);\n        }\n    }\n\n    function notifyRewardAmount(uint256 reward) external onlyOwner updateReward(address(0)) {\n        if (block.timestamp >= periodFinish) {\n            rewardRate = reward.div(rewardsDuration);\n        } else {\n            uint256 remaining = periodFinish.sub(block.timestamp);\n            uint256 leftover = remaining.mul(rewardRate);\n            rewardRate = reward.add(leftover).div(rewardsDuration);\n        }\n        // Ensure the provided reward amount is not more than the balance in the contract.\n        // This keeps the reward rate in the right range, preventing overflows due to\n        // very high values of rewardRate in the earned and rewardsPerToken functions;\n        // Reward + leftover must be less than 2^256 / 10^18 to avoid overflow.\n        uint256 balance = address(this).balance;\n        require(\n            rewardRate <= balance.div(rewardsDuration),\n            \"Provided reward too high\"\n        );\n        lastUpdateTime = block.timestamp;\n        periodFinish = block.timestamp.add(rewardsDuration);\n        emit RewardAdded(reward);\n    }\n\n    function setRewardsDuration(uint256 _rewardsDuration) external onlyOwner {\n        require(\n            block.timestamp > periodFinish,\n            \"Previous rewards period must be complete before changing the duration for the new period\"\n        );\n        rewardsDuration = _rewardsDuration;\n        emit RewardsDurationUpdated(rewardsDuration);\n    }\n\n    /* ========== MUTATIVE FUNCTIONS ========== */\n\n    function initiate(uint256[] memory id, uint256 ape) external onlyOwner {\n        uint8 i;\n        uint256 length = id.length;\n        // 1 = female\n        if (ape == 1) {\n            for (i=0; i < length; i++) {\n                femaleId[id[i]] = true;\n            }\n        }\n        // 2 = male\n        else if (ape == 2) {\n            for (i=0; i < length; i++) {\n                maleId[id[i]] = true;\n            }\n        }\n        // 3 = baby\n        else if (ape == 3) {\n            for (i=0; i < length; i++) {\n                babyId[id[i]] = true;\n            }\n        }\n        else {\n            revert(\"wrong ape\");\n        }\n    }\n\n    function initiateBabies(uint256[] memory female, uint256[] memory baby) external onlyOwner {\n        require(female.length == baby.length, \"!length\");\n        uint8 i;\n        for (i=0; i < female.length; i++) {\n                babyOf[female[i]].push(baby[i]);\n        }\n    }\n\n    function initiateCertificates(uint256[] memory certificate) external onlyOwner {\n        uint8 i;\n        for (i=0; i < certificate.length; i++) {\n                certificates.push(certificate[i]);\n        }\n    }\n\n    function stake(uint256 tokenId) public whenNotPaused updateReward(msg.sender) {\n        if (femaleId[tokenId] == true) {\n            require(stakedFemales[msg.sender]+1 <= 1, \"1 adult female max\");\n            stakedFemales[msg.sender]++;\n            // start breeding\n            _breeding();\n        } else if (maleId[tokenId] == true) {\n            require(stakedMales[msg.sender]+1 <= 2, \"2 adult male max\");\n            stakedMales[msg.sender]++;\n            // start breeding\n            _breeding();\n        } else if (babyId[tokenId] == true) {\n            require(stakedBabies[msg.sender]+1 <= 2, \"2 babies max\");\n            stakedBabies[msg.sender]++;\n        } else {\n            revert(\"wrong ape\");\n        }\n        // start pay rewards\n        if (_eligibleForRewards()) {\n            _balances[msg.sender] = 1e18;\n        }\n        _totalSupply++;\n        staked[msg.sender].push(tokenId);\n        apeToken.safeTransferFrom(msg.sender, address(this), tokenId, 1, \"0x0\");\n        emit Staked(msg.sender, tokenId);\n    }\n\n    function stakeBatch(uint256[] memory tokenId) external {\n        uint i;\n        uint256 length = tokenId.length;\n        for (i=0; i < length; i++) {\n            stake(tokenId[i]);\n        }\n    }\n\n    function withdraw(uint256 tokenId) public whenNotPaused updateReward(msg.sender) {\n      require(_isStaked(tokenId),\"not staked\");\n        if (femaleId[tokenId] == true) {\n            stakedFemales[msg.sender]--;\n            breedingEnd[msg.sender] = 0; // start breeding again\n        } else if (maleId[tokenId] == true) {\n            stakedMales[msg.sender]--;\n            breedingEnd[msg.sender] = 0;\n        } else {\n            stakedBabies[msg.sender]--;\n        }\n        if (_eligibleForRewards()) {\n            _balances[msg.sender] = 1e18;\n        } else {\n            _balances[msg.sender] = 0;\n        }\n        _totalSupply--;\n        _remove(tokenId);\n        apeToken.safeTransferFrom(address(this), msg.sender, tokenId, 1, \"0x0\");\n        emit Withdrawn(msg.sender, tokenId);\n    }\n\n    function exit() external {\n        uint i;\n        uint256 length = staked[msg.sender].length;\n        for (i=0; i < length; i++) {\n            withdraw(staked[msg.sender][0]);\n        }\n        getReward();\n    }\n\n    function claimBaby() external nonReentrant whenNotPaused returns(uint256) {\n        require(stakedFemales[msg.sender] >= 1, \"female not staked\");\n        uint256 female;\n        for (uint8 i=0; i < staked[msg.sender].length; i++) {\n            // if the female staked\n            if (femaleId[staked[msg.sender][i]] == true) {\n                female = staked[msg.sender][i];\n            }\n        }\n        require(birth[female]+1 <= 2,\"Two babies max\");\n        require(_breedingTime(), \"!breeding\");\n        _breeding();\n        if (birth[female] == 0) {\n            apeToken.safeTransferFrom(apeOwner, msg.sender, babyOf[female][0], 1, \"0x0\"); // TODO who own?\n            emit Claimed(msg.sender, babyOf[female][0]);\n        } else {\n            apeToken.safeTransferFrom(apeOwner, msg.sender, babyOf[female][1], 1, \"0x0\");\n            emit Claimed(msg.sender, babyOf[female][1]);\n        }\n        birth[female]++;\n    }\n\n    function _eligibleForRewards() internal view returns(bool) {\n        if (stakedBabies[msg.sender] == 2 && stakedFemales[msg.sender] == 1 && stakedMales[msg.sender] == 1) {\n            return true;\n        }\n        if (stakedBabies[msg.sender] == 2 && stakedMales[msg.sender] == 2) {\n            if (_haveCertificate(msg.sender)) {\n                return true;\n            }\n        }\n    }\n\n    function _haveCertificate(address owner) internal view returns(bool) {\n        for (uint8 index = 0; index < certificates.length; index++) {\n            if (apeToken.balanceOf(owner, certificates[index]) >= 1) {\n                return true;\n            }\n        }\n    }\n\n    function _breeding() internal {\n        if (stakedFemales[msg.sender] == 1 && stakedMales[msg.sender] == 1) {\n            breedingEnd[msg.sender] = now + 1 minutes; // TODO change before deploying\n        }\n    }\n\n    function _breedingTime() internal view returns(bool) {\n        if (breedingEnd[msg.sender] == 0) {\n            return false;\n        }\n        if (now > breedingEnd[msg.sender]) {\n            return true;\n        }\n    }\n\n    function _isStaked(uint256 tokenId) internal view returns(bool) {\n        for (uint8 index = 0; index < staked[msg.sender].length; index++) {\n            if (staked[msg.sender][index] == tokenId) {\n                return true;\n            }\n        }\n    }\n\n    function _remove(uint256 tokenId) internal {\n        uint256[] memory id = staked[msg.sender];\n        for (uint8 index = 0; index < id.length; index++) {\n            if (id[index] == tokenId) {\n                staked[msg.sender][index] = staked[msg.sender][id.length-1];\n                staked[msg.sender].pop();\n                return;\n            }\n        }\n    }\n\n    /* ========== RESTRICTED FUNCTIONS ========== */\n\n    function pause() external onlyOwner whenNotPaused {\n        _pause();\n        emit Paused(msg.sender);\n    }\n\n    function unpause() external onlyOwner whenPaused {\n        _unpause();\n        emit Unpaused(msg.sender);\n    }\n\n    function withdrawEther() external onlyOwner {\n        uint balance = address(this).balance;\n        msg.sender.transfer(balance);\n    }\n\n    function recoverERC20(address tokenAddress, uint256 tokenAmount) external onlyOwner {\n        IERC20(tokenAddress).transfer(this.owner(), tokenAmount);\n        emit Recovered(tokenAddress, tokenAmount);\n    }\n\n    function onERC1155Received(address, address, uint256, uint256, bytes memory) public pure virtual returns (bytes4) {\n        return this.onERC1155Received.selector;\n    }\n\n    /* ========== VIEWS ========== */\n\n    function totalSupply() external view returns (uint256) {\n        return _totalSupply;\n    }\n\n    function getStaked(address owner) external view returns (uint256[] memory) {\n        return staked[owner];\n    }\n\n    /* ========== MODIFIERS ========== */\n\n    modifier updateReward(address account) {\n        rewardPerTokenStored = rewardPerToken();\n        lastUpdateTime = lastTimeRewardApplicable();\n        if (account != address(0)) {\n            rewards[account] = earned(account);\n            userRewardPerTokenPaid[account] = rewardPerTokenStored;\n        }\n        _;\n    }\n\n    /* ========== EVENTS ========== */\n\n    event Staked(address indexed user, uint256 tokenId);\n    event Withdrawn(address indexed user, uint256 tokenId);\n    event Recovered(address token, uint256 amount);\n    event Claimed(address indexed user, uint256 tokenId);\n    event RewardAdded(uint256 reward);\n    event RewardPaid(address indexed user, uint256 reward);\n    event RewardsDurationUpdated(uint256 newDuration);\n}\n",
  "sourcePath": "/home/dev215/working/dapps/contracts_test/contracts/StakingPool.sol",
  "compiler": {
    "name": "solc",
    "version": "0.6.12+commit.27d51765.Emscripten.clang"
  },
  "schemaVersion": "3.4.0",
  "updatedAt": "2021-05-12T22:32:03.071Z",
  "networkType": "ethereum",
  "devdoc": {
    "kind": "dev",
    "methods": {
      "owner()": {
        "details": "Returns the address of the current owner."
      },
      "paused()": {
        "details": "Returns true if the contract is paused, and false otherwise."
      },
      "renounceOwnership()": {
        "details": "Leaves the contract without owner. It will not be possible to call `onlyOwner` functions anymore. Can only be called by the current owner. NOTE: Renouncing ownership will leave the contract without an owner, thereby removing any functionality that is only available to the owner."
      },
      "transferOwnership(address)": {
        "details": "Transfers ownership of the contract to a new account (`newOwner`). Can only be called by the current owner."
      }
    },
    "version": 1
  },
  "userdoc": {
    "kind": "user",
    "methods": {},
    "version": 1
  }
}